:100000000C9473000C949B000C949B000C949B002C
:100010000C949B000C949B000C949B000C949B00F4
:100020000C949B000C949B000C949B000C949B00E4
:100030000C949B000C949B000C949B000C949B00D4
:100040000C94590C0C949B000C94C90C0C94A30CAC
:100050000C949B000C949B000C949B000C949B00B4
:100060000C943A0B0C949B00000000002300260027
:100070002900005EBCE2613FDD83C29C7E20A3FDBF
:100080001F41009D23BE46DB65F88C11AF32CA5775
:10009000E97400000000240027002A00000000008E
:1000A000250028002B0004040404040404040202B4
:1000B00002020202030303030303010204081020E7
:1000C00040800102040810200102040810200000F2
:1000D0000008000201000003040700000000000007
:1000E0000000630DD21711241FBECFEFD8E0DEBF92
:1000F000CDBF24E0AAE4B2E001C01D92AE3BB2073E
:10010000E1F712E0A0E0B1E0E8E8F9E302C0059011
:100110000D92AA34B107D9F710E0C2E7D0E004C0CD
:100120002197FE010E949319C137D107C9F70E9498
:10013000180E0C94B71C0C94000020912D03260F70
:100140003327331F21323105ECF420915303FC0196
:1001500090E080E0243069F082E00895A0912D03C2
:100160002191AC01455F5C4FA40FB52FB11D2C93BD
:100170000196861798F380912D03680F60932D03E5
:1001800080E0089581E00895089508950895E0912C
:10019000020380910103E81730F4F0E0EF51FD4FC6
:1001A000808190E008958FEF9FEF08959091020372
:1001B000809101032FEF3FEF981748F4E92FF0E00B
:1001C000EF51FD4F208130E09F5F90930203C90102
:1001D00008958091010390910203891B990B089562
:1001E000CF92DF92EF92FF920F931F93CF93DF9303
:1001F0007C01CB018A012091E002222389F0EB01EE
:100200006B01C40ED51ECC15DD0569F06991D701CF
:10021000ED91FC910190F081E02DC7010995F3CF9C
:10022000642F0E949D00C801DF91CF911F910F9113
:10023000FF90EF90DF90CF900895CF93DF931F92C0
:10024000CDB7DEB769832091E0022223F9F0209137
:100250000303203258F021E030E0FC013383228395
:1002600090E080E00F90DF91CF910895809104039A
:10027000E82FF0E0E054FD4F998190838F5F8093E9
:1002800004038093030381E090E0ECCF61E0CE01B2
:1002900001960E949D00F7CF833081F028F48130D1
:1002A00099F08230A9F008958730A9F08830C9F01C
:1002B0008430B1F4809180008F7D03C080918000F4
:1002C0008F7780938000089584B58F7784BD0895DB
:1002D00084B58F7DFBCF8091B0008F778093B00085
:1002E00008958091B0008F7DF9CF1F93CF93DF9356
:1002F000282F30E0F901E253FF4F8491F901E654D1
:10030000FF4FD491F901EA55FF4FC491CC23A9F0D6
:10031000162F81110E944C01EC2FF0E0EE0FFF1F11
:10032000E456FF4FA591B4918FB7F894EC91111159
:1003300008C0D095DE23DC938FBFDF91CF911F9152
:100340000895DE2BF8CF1092530381E0809355037C
:100350001092540361E082E10E94750161E083E143
:100360000E947501E9EBF0E080818E7F80838081BF
:100370008D7F808388E48093B80085E48093BC00FF
:100380000895CF93DF9391E090930A038823B9F007
:10039000C091B800D091BA008091BC008A7B809354
:1003A000BC0060E082E10E94750160E083E10E9490
:1003B00075010E94A301D093BA00C093B800DF91E9
:1003C000CF910895CF93DF9390E0FC01E654FF4F67
:1003D00024918A559F4FFC0184918823C9F090E0B5
:1003E000880F991FFC01EE56FF4FA591B491FC01B7
:1003F000E456FF4FC591D49161110DC09FB7F89499
:100400008C91209582238C938881282328839FBFF9
:10041000DF91CF910895623051F49FB7F8943C91E9
:10042000822F809583238C93E8812E2BEFCF8FB77B
:10043000F894EC912E2B2C938FBFEACF3FB7F89412
:100440008091BC029091BD02A091BE02B091BF020A
:1004500026B5A89B05C02F3F19F00196A11DB11D1F
:100460003FBFBA2FA92F982F8827BC01CD01620F5B
:10047000711D811D911D42E0660F771F881F991F16
:100480004A95D1F708958F929F92AF92BF92CF92E3
:10049000DF92EF92FF926B017C010E941E024B01E2
:1004A0005C01C114D104E104F104B9F00E941E0200
:1004B000681979098A099B09683E7340810591058D
:1004C00080F321E0C21AD108E108F10888EE880E15
:1004D00083E0981EA11CB11CE4CFFF90EF90DF9049
:1004E000CF90BF90AF909F908F9008952FB7F894C2
:1004F0006091B8027091B9028091BA029091BB02EA
:100500002FBF0895AF92BF92CF92DF92EF92FF92EA
:100510000F931F93CF93DF936C017B018B01040F2B
:10052000151FEB015E01AE18BF08C017D10759F0C7
:100530006991D601ED91FC910190F081E02DC60109
:100540000995892B79F7C501DF91CF911F910F9103
:10055000FF90EF90DF90CF90BF90AF900895FC0197
:10056000538D448D252F30E0842F90E0821B930B18
:10057000541710F0CF96089501970895FC01918DBE
:10058000828D981761F0A28DAE0FBF2FB11D5D96C1
:100590008C91928D9F5F9F73928F90E008958FEF63
:1005A0009FEF0895FC01918D828D981731F0828D17
:1005B000E80FF11D858D90E008958FEF9FEF08956E
:1005C000FC01918D228D892F90E0805C9F4F821BD2
:1005D00091098F739927089585E893E00E94E002BE
:1005E00021E0892B09F420E0822F089580E090E03B
:1005F000892B29F00E94EC0281110C9400000895CF
:10060000FC01A48DA80FB92FB11DA35ABF4F2C9187
:10061000848D90E001968F739927848FA689B7897E
:100620002C93A089B1898C91837080648C93938D75
:10063000848D981306C00288F389E02D80818F7D18
:1006400080830895EF92FF920F931F93CF93DF93D0
:10065000EC0181E0888F9B8D8C8D98131AC0E889FE
:10066000F989808185FF15C09FB7F894EE89FF89CD
:100670006083E889F98980818370806480839FBF6B
:1006800081E090E0DF91CF911F910F91FF90EF906B
:100690000895F62E0B8D10E00F5F1F4F0F7311277B
:1006A000E02E8C8D8E110CC00FB607FCFACFE889B6
:1006B000F989808185FFF5CFCE010E940003F1CF3B
:1006C000EB8DEC0FFD2FF11DE35AFF4FF0829FB72A
:1006D000F8940B8FEA89FB8980818062CFCFCF931A
:1006E000DF93EC01888D8823B9F0AA89BB89E8895A
:1006F000F9898C9185FD03C0808186FD0DC00FB600
:1007000007FCF7CF8C9185FFF2CF808185FFEDCF7D
:10071000CE010E940003E9CFDF91CF910895CF92DF
:10072000DF92EF92FF920F931F93CF93DF93FC0121
:10073000C48121E02093E002C0934A021092040396
:10074000109203038385682B89E793E00E941D01C3
:10075000D0910303D13208F092C00E941E026B01B7
:100760007C0180915303811165C082E08093530323
:1007700081E0809355038FEF8093520310927703AB
:10078000D0937603A0ECB2E0E6E5F3E080E0D81386
:1007900085C01092780380917803CC0FC82BC0934A
:1007A000780380915403813009F07CC01092540387
:1007B0000E941E026B017C01809178038093BB0034
:1007C0008091060390910703A0910803B09109035B
:1007D000892B8A2B8B2B99F00E941E020091060315
:1007E0001091070320910803309109036C197D09CA
:1007F0008E099F090617170728073907E0F180912E
:10080000BC0083FDD9CF85EC8093BC000E941E0202
:100810006B017C0180915303823009F445C08091C3
:1008200052038F3F61F180915203803241F18091F8
:10083000520325C08091060390910703A0910803FD
:10084000B0910903892B8A2B8B2B09F48ACF0E9444
:100850001E020091060310910703209108033091B6
:1008600009036C197D098E099F09061717072807C8
:10087000390708F076CF809105030E94C1011092DC
:100880000403109203031092E002DF91CF911F91B5
:100890000F91FF90EF90DF90CF9008959D919193ED
:1008A0008F5F75CF85EEB0CF8091060390910703DF
:1008B000A0910803B0910903892B8A2B8B2B09F493
:1008C000A9CF0E941E0200910603109107032091F8
:1008D0000803309109036C197D098E099F090617D9
:1008E00017072807390708F095CFC5CF089590E07E
:1008F00080E00895DC0180E0615090F09D919827A0
:10090000E92FEF70F0E0EE58FF4F2491E92FE295C8
:10091000EF70F0E0EE57FF4FE491822F8E27ECCF7F
:100920000895DC012C911196ED91FC91F894818150
:10093000822B81839281322F30959323928387E09B
:1009400090E00197F1F781818323818383E290E036
:100950000197F1F790817894EFECF0E03197F1F79F
:10096000922381E009F480E00895FC0190810180E8
:10097000F281E02D292F209560FF14C0F894828128
:10098000822382838181892B8183A3E2B0E0119746
:10099000F1F78281982B9283789487ED90E001970C
:1009A000F1F70895F8948281822382838181892BD3
:1009B0008183AFEFB0E01197F1F78281982B92839A
:1009C00078948FE090E0EBCFDF92EF92FF920F935D
:1009D0001F93CF93DF93EC01D62EE42E08E010E0B6
:1009E000FF24F39461E08D2D8F2109F460E0CE01A6
:1009F0000E94B504FF0C01501109A1F7E11010C0CD
:100A0000F894E981FA819181888180958923818395
:100A1000E981FA8192818881809589238283789403
:100A2000DF91CF911F910F91FF90EF90DF9008958C
:100A3000EF92FF920F931F93CF93DF938C017B0173
:100A400040E065E50E94E404E70188E0E80EF11C5F
:100A5000699140E0C8010E94E404CE15DF05C1F7AA
:100A6000DF91CF911F910F91FF90EF900895FC01BE
:100A700090810180F281E02DF8948181292F2095C9
:100A80008223818378943DE743E050E0315029F19F
:100A9000DA011197F1F780818923C1F3F8948281FB
:100AA000822382838181892B81837894ABE7B7E0AD
:100AB0001197F1F7F894818182238183A3E1B1E05A
:100AC0001197F1F78081982381E009F080E0789414
:100AD000E3E6F6E03197F1F7089580E008956F922C
:100AE0007F928F929F92AF92BF92CF92DF92EF92BE
:100AF000FF920F931F93CF93DF938C01EB018091B3
:100B00008404909185040E943705882309F43FC02E
:100B1000B80180918404909185040E94180540E0FA
:100B20006EEB80918404909185040E94E4047E0120
:100B30006E0189E0C80ED11C8E01A0908404B09093
:100B4000850488E0882E912C712C66246394C5015D
:100B50000E94910481117628660CE1E08E1A9108BA
:100B6000B1F7F80171928F01CE16DF0631F780914F
:100B70008404909185040E943705813041F4F70187
:100B800081917F01811105C0E017F107C1F790E065
:100B900008C068E0CE010E947A0491E028852813FD
:100BA000F6CF892FDF91CF911F910F91FF90EF909A
:100BB000DF90CF90BF90AF909F908F907F906F907D
:100BC00008950F931F93CF93DF93CDB7DEB7299787
:100BD0000FB6F894DEBF0FBECDBF8C01BE016F5FB4
:100BE0007F4F0E946F05811105C060E070E08EEFBD
:100BF00092EC3EC06A8170E0762F6627770F770F00
:100C0000770F298148E0249F90011124262B372B50
:100C1000F80180818031E1F468856623C9F070E0D5
:100C20008F81AB01481B5109CA019695982F8827DF
:100C3000979587950E945D19CB018097B90153E084
:100C4000660F771F5A95E1F760789C01260F371FD2
:100C5000213854EE35074CF2B901330F880B990B4C
:100C60000E94F31720E030E040E05CE30E9452185D
:100C700029960FB6F894DEBF0FBECDBFDF91CF919E
:100C80001F910F9108950F931F93CF93DF93C82F58
:100C9000D0E0FE01EA5DFE4F208130E0F901E25331
:100CA000FF4F8491F901E654FF4F0491F901EA5591
:100CB000FF4F1491112379F081110E944C01E12F13
:100CC000F0E0EE0FFF1FE859FF4FA591B491EC91B2
:100CD0000E2391E009F490E0C15BDD4F8881891714
:100CE00019F081E0913009F080E09883DF91CF9195
:100CF0001F910F910895BF92CF92DF92EF92FF92D2
:100D00000F931F93CF93DF93EC01B62EC72E8D85E3
:100D1000811105C0CE010E94370581110EC01B86CE
:100D20001D861C8680E0DF91CF911F910F91FF906F
:100D3000EF90DF90CF90BF90089540E060EFCE013C
:100D40000E94E40401E0E12CD12C11E0CE010E94CC
:100D50009104F82ECE010E94910491E0F91218C07E
:100D6000813099F51134D8F2DB86D11002C081E0D0
:100D70008D878B81882399F22396EB2DFC2DCF0153
:100D8000089629912193E817F907D9F781E0CBCF8D
:100D9000EE2DF0E0F8120FC08B851817A0F4DE01DD
:100DA000AE0FBF1F13968C91802379F4F12C19306C
:100DB00008F41C87D12EEC0FFD1F8381902F909596
:100DC000892383830AC08113F1CFFE01EE0DF11D4B
:100DD0008381802B8383FF24F3946F2DCE010E94A7
:100DE000B5041F5F000F11F4E39401E087E08E1556
:100DF00008F0ACCFB7CFEF92FF920F931F93CF9332
:100E0000DF93CDB7DEB761970FB6F894DEBF0FBEA4
:100E1000CDBF8C01FC018081FF24F394803109F463
:100E20006FC0BE016F5F7F4FC8010E946F05F82E33
:100E3000882309F465C08D818F3109F461C08FE189
:100E40008D8380918404909185040E943705B801B8
:100E500080918404909185040E94180540E06EE41E
:100E600080918404909185040E94E40440E06B81A9
:100E700080918404909185040E94E40440E06C8198
:100E800080918404909185040E94E404F80180819B
:100E9000803141F040E06D8180918404909185041F
:100EA0000E94E404E0908104809184049091850480
:100EB000EE2009F486C00E943705882309F1B801A5
:100EC00080918404909185040E94180540917B04D0
:100ED00068E480918404909185040E94E4048091E8
:100EE0007B04811154C064E170E080E090E00E94D6
:100EF000430280918404909185040E943705FE2C62
:100F000089E080937E0480918204823008F478C066
:100F100010E080918204181708F072C080917E045E
:100F20008C3009F46DC0E0918404F091850413863F
:100F300015861486128611861086178216821582EF
:100F40001482138200E0BE01665F7F4F80918404AB
:100F5000909185040E947B06882329F00117A1F156
:100F60000F5F101780F78A858031D9F1BE016F5F5E
:100F70007F4FCE010A960E946F05882331F08D8144
:100F80008F3389F150F58F31B9F180E02DC0809118
:100F90007C04882329F060E080917D040E94750123
:100FA00064E170E080E090E00E94430280917C0464
:100FB000882309F49ECF61E080917D040E94750131
:100FC00098CF0E9437059CCF67E0CE010A960E9419
:100FD0007A0499898913C4CFC6CF8F3579F08F37BA
:100FE000A1F68CE001C08AE090917E04981710F47D
:100FF00080937E041F5F8DCF89E0F6CF8BE0F4CF26
:101000008F2D61960FB6F894DEBF0FBECDBFDF9176
:10101000CF911F910F91FF90EF9008950F931F9321
:10102000CF938C01C62F0E948F036C2F6460C80180
:101030000E948F036C2F6B7FC8010E948F0383EC8B
:1010400090E00197F1F7CF911F910F9108950F93C1
:101050001F93CF93DF938C01D62FC42F607F642B17
:101060000E940E0880E1D89FB00111246C2BC801AA
:10107000DF91CF911F910F910C940E08CF93DF93C6
:10108000CDB7DEB728970FB6F894DEBF0FBECDBF41
:1010900098E0EEE1F1E0DE01119601900D929A9553
:1010A000E1F79091B604961708F46FEF262F30E021
:1010B000220F331F41E050E04C0F5D1F240F351FFE
:1010C000F9016081680F606840E08EEA94E028963C
:1010D0000FB6F894DEBF0FBECDBFDF91CF910C9459
:1010E000270841E00E94270881E090E0089541E050
:1010F000682F8EEA94E00E94270881E090E008952E
:1011000040E061E08EEA94E00E9427088BE39FE1D3
:101110000197F1F70895FF920F931F93CF93DF93F9
:101120008C01EB01F42E0E94800860E08F2D0E945C
:101130003E084C815D81688179818EEA94E00E944D
:10114000820288819981F801918380838A819B81C1
:10115000938382838C819D819583848319821882F5
:101160001B821A821D821C82C801DF91CF911F91C0
:101170000F91FF900895FC0101900020E9F731974D
:10118000AF01481B590BBC018EEA94E00C9482021B
:101190008F929F92AF92BF920F931F93CF93DF9343
:1011A000CDB7DEB7A1970FB6F894DEBF0FBECDBFA7
:1011B00019A2423008F44AE08E010F5D1F4F842EC1
:1011C000912CB12CA12CA50194010E947119E62F3C
:1011D000B901CA01EA30F4F4E05DD801EE938D0163
:1011E000232B242B252B79F790E080E0109719F022
:1011F000CD010E94BB08A1960FB6F894DEBF0FBECA
:10120000CDBFDF91CF911F910F91BF90AF909F9075
:101210008F900895E95CE1CF0C94BB08FF920F9387
:101220001F93CF93DF938C01EB01F42E8091B302D7
:101230009091B402A091B502B091B60240914B02D8
:1012400050914C0260914D0270914E02841B950B9F
:10125000A60BB70B883E9340A105B10500F10E9493
:10126000760260934B0270934C0280934D029093F0
:101270004E020E94800860E085E00E943E0880E601
:1012800091E00E940C0961E08F2D0E943E084C8184
:101290005D81688179818EEA94E00E948202888172
:1012A0009981F801918380838A819B8193838283D2
:1012B0008C819D8195838483198218821B821A8276
:1012C0001D821C82C801DF91CF911F910F91FF9069
:1012D00008954F925F926F927F928F929F92AF92FA
:1012E000BF92CF92DF92EF92FF92CF93DF936B0189
:1012F0007C01942EAC019B010E94C01A882391F0BE
:1013000087E691E0DF91CF91FF90EF90DF90CF9053
:10131000BF90AF909F908F907F906F905F904F9015
:101320000C94BB0826013701E89477F82FEF3FEFC4
:101330004FE75FE7C301B2010E94C01A81110DC0DF
:101340002FEF3FEF4FE75FE7C301B2010E94EC17B9
:1013500018161CF48BE691E0D5CF2FEF3FEF4FE747
:101360005FE4C701B6010E94BB1A18161CF48FE691
:1013700091E0C8CF2FEF3FEF4FE75FECC701B60119
:101380000E94EC1787FDF3CF20E030E0A901C701F0
:10139000B6010E94EC17B12CA12C87FF08C08DE28A
:1013A0000E9477085C01F7FAF094F7F8F094C92DE1
:1013B00060E070E080E09FE3D0E020E030E040E2D9
:1013C00051E40E941A1A21E02D0FD1E02915A8F34B
:1013D000A70196010E94AE192B013C010E948C1AB4
:1013E0006B017C010E94F1179B01AC01C301B201AA
:1013F0000E94AD192B013C014AE0C701B6010E94D1
:10140000C8087C018EE20E947708E80EF91EEA0CFB
:10141000FB1CC15018F120E030E040E251E4C30170
:10142000B2010E9452182B013C010E948C1A4B0100
:10143000B12CA12C4AE0C501B4010E94C808E80EF5
:10144000F91EC501B4010E94F1179B01AC01C30153
:10145000B2010E94AD192B013C01DBCFC701DF9126
:10146000CF91FF90EF90DF90CF90BF90AF909F9083
:101470008F907F906F905F904F90089585ED80934F
:10148000BC008091060390910703A0910803B091DE
:1014900009030796A11DB11D23E0B695A795979561
:1014A00087952A95D1F72091BC0024FD03C01092A6
:1014B0005303089540910603509107036091080378
:1014C00070910903452B462B472B69F30097A10523
:1014D000B10541F025E32A95F1F700000197A10934
:1014E000B109E1CF809105030C94C1010F931F93C3
:1014F000CF93DF93EC0188819981009759F02A817D
:101500003B812617370730F081E0DF91CF911F91A3
:101510000F9108958B016F5F7F4F0E94EA1B009728
:1015200059F0998388831B830A832C813D81232B67
:1015300059F7FC011082E8CF80E0E7CFFC01808101
:101540009181009711F00C94611B0895EF92FF9226
:101550000F931F93CF93DF93EC01198218821B82A4
:101560001A821D821C8286179707D9F0FB01008121
:10157000118101151105A9F0E480F580B7010E94E1
:10158000760A28813981811113C02115310519F09E
:10159000C9010E94611B198218821D821C821B8254
:1015A0001A82DF91CF911F910F91FF90EF900895D4
:1015B000FD82EC82B801C901DF91CF911F910F919B
:1015C000FF90EF900C94B01C9F92AF92BF92CF927D
:1015D000DF92EF92FF920F931F93CF93DF935C0103
:1015E0007B018B01D0E0C0E0F80191908F01650193
:1015F000CC0EDD1EC6010E941019981621F0692D2F
:10160000C6010E9418192196C430D10569F7C70197
:10161000DF91CF911F910F91FF90EF90DF90CF90CE
:10162000BF90AF909F900895CF92DF92EF92FF927C
:101630000F931F93CF93DF93EB017B0124E0E20E26
:10164000F11C8B016C01C61AD70AC601800F911FCD
:101650000E941019F80181938F01EE15FF05A9F77B
:10166000CE01DF91CF911F910F91FF90EF90DF900E
:10167000CF9008951F920F920FB60F9211242F93BF
:101680003F934F935F936F937F938F939F93AF930A
:10169000BF93EF93FF938091B900887F803609F460
:1016A0004AC0F0F5883209F4A7C018F5803109F472
:1016B0009BC0B8F4882309F4F9C0883009F494C0B9
:1016C000FF91EF91BF91AF919F918F917F916F911A
:1016D0005F914F913F912F910F900FBE0F901F90F0
:1016E0001895883109F488C0803251F780935203ED
:1016F00014C0803409F49DC040F48033B9F38833BA
:10170000F9F68093520385ECB0C0803509F485C0AA
:10171000883509F496C0883499F60E943E0AD0CFE5
:10172000883909F48CC038F5883729F050F48836A8
:1017300011F0803729F683E0809353031092510310
:1017400057C0883809F47BC0803919F0803809F017
:10175000B7CF80915103803208F071C0E0915103FE
:1017600081E08E0F809351038091BB00F0E0EF5C2D
:10177000FC4F80833DC0803B39F0E0F4803A09F4AF
:1017800079C0883A09F09CCF84E08093530310928B
:101790002E0310922D03E0912B03F0912C03099559
:1017A00080912D0381110FC081E080932D03109251
:1017B0000B0309C0803C09F4A6CF883C09F4A3CFF1
:1017C000883B09F07DCFE0912E0381E08E0F80935E
:1017D0002E03F0E0E55FFC4F80818093BB00909189
:1017E0002E0380912D0329C0809178038093BB0044
:1017F00085EC8093BC0064CF909177038091760351
:10180000981758F5E091770381E08E0F8093770366
:10181000F0E0EA5AFC4F8081E9CFE091770381E064
:101820008E0F809377038091BB00F0E0EA5AFC4F63
:10183000808390917703809176039817C8F285E8AA
:10184000D8CFE091770381E08E0F8093770380916A
:10185000BB00F0E0EA5AFC4F808380915503811170
:101860005CCF81E08093540384EA8093BC001092A3
:10187000530326CF85EC8093BC00109253038091D4
:101880005103803230F4E0915103F0E0EF5CFC4F03
:1018900010826091510370E0E0912F03F0913003CA
:1018A00081E393E00995109251030ACF10925203FD
:1018B00034CF1F920F920FB60F9211242F933F93A4
:1018C0008F939F93AF93BF938091B8029091B90289
:1018D000A091BA02B091BB023091B70223E0230F6E
:1018E0002D3758F50196A11DB11D2093B7028093A5
:1018F000B8029093B902A093BA02B093BB02809150
:10190000BC029091BD02A091BE02B091BF020196AF
:10191000A11DB11D8093BC029093BD02A093BE0295
:10192000B093BF02BF91AF919F918F913F912F9143
:101930000F900FBE0F901F90189526E8230F029668
:10194000A11DB11DD2CF1F920F920FB60F9211247D
:101950002F933F934F935F936F937F938F939F93B7
:10196000AF93BF93EF93FF9385E893E00E9400034A
:10197000FF91EF91BF91AF919F918F917F916F9167
:101980005F914F913F912F910F900FBE0F901F903D
:1019900018951F920F920FB60F9211242F938F93C9
:1019A0009F93EF93FF93E0919503F09196038081CD
:1019B000E0919B03F0919C0382FD1BC0908180917C
:1019C0009E038F5F8F7320919F03821741F0E091F8
:1019D0009E03F0E0EB57FC4F958F80939E03FF91A1
:1019E000EF919F918F912F910F900FBE0F901F90AD
:1019F00018958081F4CF1F93CF93DF93EC01162FBE
:101A000060E0812F0E94E201612F70E0FB01E6544B
:101A1000FF4FE491E883FB01EA55FF4FE491F0E0CA
:101A2000EE0FFF1FE859FF4F859194919A838983A8
:101A30001B861D861C861A86198618861F821E82A2
:101A40001D821C821B82DF91CF911F910895EF921E
:101A5000FF920F931F93CF93DF93EC017B011982C9
:101A600018821B821A821D821C82FB0101900020B9
:101A7000E9F731978F01061B170BB8010E94760A10
:101A800028813981811113C02115310519F0C9014F
:101A90000E94611B198218821D821C821B821A827D
:101AA000DF91CF911F910F91FF90EF9008951D83CB
:101AB0000C83B701C901DF91CF911F910F91FF9066
:101AC000EF900C94B01CE9E7F3E01382128288EEE9
:101AD00093E0A0E0B0E084839583A683B78324E3FA
:101AE00031E031832083E5E8F3E0138212828483BE
:101AF0009583A683B78386E491E09183808385EC08
:101B000090E09587848784EC90E09787868780ECC7
:101B100090E0918B808B81EC90E0938B828B82ECB8
:101B200090E0958B848B86EC90E0978B868B118E62
:101B3000128E138E148EEEEAF4E01382128288E580
:101B400091E09183808387E2848380E1818782E0D2
:101B5000828713866DE080EA94E00E94FB0C6CE0C3
:101B600082E994E00E94FB0CEBE7F4E0168A158A08
:101B7000118280EA94E09287818717821086108212
:101B800099E0938381E0848385838683E4E6F4E0AF
:101B9000168A158A118222E934E03287218717825A
:101BA00010861082938384838583868363E771E044
:101BB00082E594E00E94270D6DE771E088E594E0EE
:101BC0000E94270D69E871E08EE594E00E94270DE0
:101BD00064E971E082E294E00E94270D6BE971E014
:101BE00088E294E00E94270D62EA71E08EE294E0C0
:101BF0000E94270D69EA71E084E394E00E94270DBA
:101C000060EB71E08AE394E00E94270D66EB71E0DF
:101C100080E494E00E94270D6BEB71E086E494E091
:101C20000E94270D60EC71E08CE494E00C94270D89
:101C3000CF93DF93CDB7DEB72C970FB6F894DEBF06
:101C40000FBECDBF789484B5826084BD84B58160B9
:101C500084BD85B5826085BD85B5816085BD809177
:101C60006E00816080936E001092810080918100EF
:101C700082608093810080918100816080938100E7
:101C8000809180008160809380008091B1008460A9
:101C90008093B1008091B00081608093B00080910A
:101CA0007A00846080937A0080917A0082608093C9
:101CB0007A0080917A00816080937A0080917A0026
:101CC000806880937A001092C100E0919503F091B2
:101CD000960382E08083E0919103F0919203108259
:101CE000E0919303F09194038FEC808310929D0315
:101CF000E0919903F0919A0386E08083E091970345
:101D0000F0919803808180618083E0919703F09146
:101D10009803808188608083E0919703F091980315
:101D2000808180688083E0919703F091980380819F
:101D30008F7D80831092020310920103109204039E
:101D4000109203030E94A30184EC90E090932C0373
:101D500080932B0385EC90E09093300380932F03C6
:101D60001092B3048091B804823018F098E09093F8
:101D7000B3048093B60462E370E080E090E00E94D8
:101D800043026091B9048EEA94E00E948F0368EEEA
:101D900073E080E090E00E94430260E38EEA94E00A
:101DA0000E940E080BE416E4C8010197F1F760E306
:101DB0008EEA94E00E940E08C8010197F1F760E3F3
:101DC0008EEA94E00E940E0883E592E00197F1F715
:101DD00060E28EEA94E00E940E086091B3046062B3
:101DE00040E08EEA94E00E94270884E08093B404E7
:101DF00040E06CE08EEA94E00E9427080E94800890
:101E000082E08093B50440E066E08EEA94E00E94B0
:101E1000270840E062E08EEA94E00E9427088BE306
:101E20009FE10197F1F788E08093B90460E08EEAC2
:101E300094E00E948F030E94800860E082E00E948C
:101E40003E0885EC91E00E940C0961E084E00E946C
:101E50003E0881ED91E00E940C0960ED77E080E0A2
:101E600090E00E9443020E9480086BE672E080EAE4
:101E700094E00E947B06811130C21092170160E04D
:101E800082E00E943E0889ED91E00E940C0961E029
:101E900082E00E943E0885EE91E00E940C0964EF0A
:101EA00071E080E090E00E9443020E94800863E6B7
:101EB00072E080EA94E00E947B0681111DC21092BC
:101EC000160160E082E00E943E0882EF91E00E94ED
:101ED0000C0961E082E00E943E0885EE91E00E94DC
:101EE0000C0964EF71E080E090E00E9443020E94E0
:101EF00080086BE572E080EA94E00E947B06811125
:101F00000AC21092150160E082E00E943E088EEF46
:101F100091E00E940C0961E082E00E943E0885EE9B
:101F200091E00E940C0964EF71E080E090E00E9473
:101F300043020E94800863E572E080EA94E00E9418
:101F40007B068111F7C11092140160E082E00E94CB
:101F50003E088AE092E00E940C0961E082E00E9463
:101F60003E0885EE91E00E940C0964EF71E080E08C
:101F700090E00E9443020E94800862E087E00E9495
:101F8000E20162E084E00E94E20162E086E00E94F9
:101F9000E20162E085E00E94E20181E080934F026D
:101FA00080935002809351028093520261E082E05C
:101FB0000E94E20161E088E00E94E20161E089E0C4
:101FC0000E94E20161E08AE00E94E20161E08BE0B0
:101FD0000E94E20161E083E00E94E20161E08EE0A4
:101FE0000E94E2010E9476026093A9027093AA0205
:101FF0008093AB029093AC020E94760260934B02F6
:1020000070934C0280934D0290934E0200E010E0DA
:102010000E9476026093B3027093B4028093B5027B
:102020009093B6020E9476026093AF027093B00262
:102030008093B1029093B20283E00E94430688230A
:1020400049F08091AE02811105C08091AD028F5F91
:102050008093AD0283E00E9443068091AD0281111E
:10206000B4C180918404909185040E94370540E0BA
:102070006CEC80918404909185040E94E40440916A
:102080007B0464E480918404909185040E94E404BC
:1020900080917F04882311F1E0917E048091800477
:1020A000882309F456C180917B04811152C10E949A
:1020B00076026B017C0180918404909185040E94DA
:1020C0009104813059F00E9476026C197D098E09C5
:1020D0009F096E3E72408105910568F38BE692E0A0
:1020E0000E94FB0683E692E00E94FB068BE592E0ED
:1020F0000E94FB0683E592E00E94FB068BE692E0DD
:102100000E94E1056093890270938A0280938B029A
:1021100090938C0283E692E00E94E1056093850231
:102120007093860280938702909388028BE592E0F9
:102130000E94E10560938102709382028093830282
:102140009093840283E592E00E94E10560937D0212
:1021500070937E0280937F029093800260E080E023
:102160000E943E0886E192E00E940C0960E083E054
:102170000E943E0880911701882309F412C16091E2
:10218000890270918A0280918B0290918C0241E0C9
:1021900050E00E94690960E087E00E943E088FEDF0
:1021A0000E94770861E080E00E943E088FE192E0A3
:1021B0000E940C0961E083E00E943E0880911601B4
:1021C000882309F4F3C060918502709186028091A2
:1021D00087029091880241E050E00E94690961E025
:1021E00087E00E943E088FED0E94770860E088E05B
:1021F0000E943E0883E292E00E940C0960E08BE0BE
:102200000E943E0880911501882309F4D4C0609192
:10221000810270918202809183029091840241E058
:1022200050E00E94690960E08FE00E943E088FED57
:102230000E94770861E088E00E943E0887E292E011
:102240000E940C0961E08BE00E943E08809114011D
:10225000882309F4B5C060917D0270917E0280915F
:102260007F029091800241E050E00E94690961E0A4
:102270008FE00E943E088FED0E9477088091AF02A8
:102280009091B002A091B102B091B2024091A90226
:102290005091AA026091AB027091AC02841B950B25
:1022A000A60BB70B8A3F9105A105B10550F00E941E
:1022B00076026093A9027093AA028093AB02909376
:1022C000AC020115110509F4A3CE0E94EC0288238B
:1022D00009F49ECE0E9400009BCE60E082E00E9446
:1022E0003E0889ED91E00E940C0961E082E00E94C5
:1022F0003E0888EE91E0D1CD60E082E00E943E0889
:1023000082EF91E00E940C0961E082E00E943E08A9
:1023100088EE91E0E4CD60E082E00E943E088EEF1E
:1023200091E00E940C0961E082E00E943E0888EE84
:1023300091E0F7CD60E082E00E943E088AE092E002
:102340000E940C0961E082E00E943E0888EE91E064
:102350000ACEE9508EEE92E0E33038F4F0E0EE0F72
:10236000FF1FE65DFE4F808191816C01990FEE08A1
:10237000FF0880917C04882329F060E080917D042F
:102380000E947501C701B6010E94430280917C043E
:10239000882309F4A3CE61E080917D040E94750139
:1023A0009DCE8AE192E00E940C09FCCE8AE192E087
:1023B0000E940C091BCF8AE192E00E940C093ACFDF
:1023C0008AE192E00E940C0959CF813009F028C4BB
:1023D000E0917702E73008F051CFF0E0EE50FE4E8A
:1023E0000C949319F9112012F112AE136B142815E5
:1023F000F81562E574E0CE0107960E94A60A44E053
:10240000BE01695F7F4FCE0101960E940E09CE0189
:1024100001960E949E0ACE0107960E949E0A80E0C5
:102420000E944306882309F429CF809177028F5FA9
:102430008093770281E08093AE0262E274E093C001
:1024400080911701882309F4C3C060E087E00E94EF
:102450003E088CE292E00E940C0960E08BE00E9452
:102460003E0865EA72E090E080E00E94140BFC01F7
:10247000608171818281938141E050E00E9469090D
:1024800060E08FE00E943E088FED0E94770861E0D7
:1024900080E00E943E0860910001709101018091EE
:1024A00002019091030141E050E00E94690961E05E
:1024B00084E00E943E088FED0E94770861E087E08B
:1024C0000E943E0881E392E00E940C0982E00E9493
:1024D0004306882309F45CC0C0900001D09001013C
:1024E000E0900201F090030120E030E048EC51E47C
:1024F000C701B6010E94EC1787FF4AC02DEC3CECE7
:102500004CEC5DE3C701B6010E94AE196093000177
:1025100070930101809302019093030183E00E9474
:102520004306882399F060E071E090E080E00E942B
:10253000E40AFC0180819181A281B3818093A5028C
:102540009093A602A093A702B093A80280E00E94F5
:102550004306882309F492CE809177028F5F80939F
:10256000770268E274E0CE0107960E94A60A40E076
:10257000BE01695F7F4FCE0101960E948B08CE019C
:1025800001960E949E0ACE0107960E949E0A76CE70
:1025900081E00E944306882309F2C0900001D09098
:1025A0000101E0900201F09003012DEC3CEC4CECB9
:1025B0005DE3C701B6010E94BB1A87FDAFCF2DECCA
:1025C0003CEC4CEC5DE3C701B6010E94AD199ECF17
:1025D00061E082E00E943E0885EE91E00E940C09D5
:1025E000B5CF80911601882309F4AFC060E087E081
:1025F0000E943E088CE292E00E940C0960E08BE0B1
:102600000E943E086DE972E084E090E00E94140BA5
:10261000FC01608171818281938141E050E00E94E0
:10262000690960E08FE00E943E088FED0E94770804
:1026300061E080E00E943E08609104017091050114
:10264000809106019091070141E050E00E946909E4
:1026500061E084E00E943E088FED0E94770861E00F
:1026600087E00E943E0881E392E00E940C0982E02C
:102670000E944306882309F448C0C0900401D0900A
:102680000501E0900601F090070120E030E048EC01
:1026900051E4C701B6010E94EC1787FF36C02DEC4C
:1026A0003CEC4CEC5DE3C701B6010E94AE196093AF
:1026B000040170930501809306019093070183E064
:1026C0000E944306882399F064E071E084E090E082
:1026D0000E94E40AFC0180819181A281B3818093F0
:1026E0009D0290939E02A0939F02B093A00280E06F
:1026F0000E944306882309F4C1CD809177028F5F41
:10270000809377026EE274E02ECF81E00E94430650
:102710008823A9F2C0900401D0900501E090060141
:10272000F09007012DEC3CEC4CEC5DE3C701B601E9
:102730000E94BB1A87FDC3CF2DEC3CEC4CEC5DE353
:10274000C701B6010E94AD19B2CF61E082E00E94DC
:102750003E0885EE91E00E940C09C9CF80911501D9
:10276000882309F4AFC060E087E00E943E088CE255
:1027700092E00E940C0960E08BE00E943E0869E94B
:1027800072E088E090E00E94140BFC01608171818E
:102790008281938141E050E00E94690960E08FE00E
:1027A0000E943E088FED0E94770861E080E00E9461
:1027B0003E08609108017091090180910A01909191
:1027C0000B0141E050E00E94690961E084E00E9451
:1027D0003E088FED0E94770861E087E00E943E0886
:1027E00081E392E00E940C0982E00E944306882364
:1027F00009F448C0C0900801D0900901E0900A0196
:10280000F0900B0120E030E048EC51E4C701B60144
:102810000E94EC1787FF36C02DEC3CEC4CEC5DE3DE
:10282000C701B6010E94AE196093080170930901B7
:1028300080930A0190930B0183E00E944306882352
:1028400099F068E071E088E090E00E94E40AFC0101
:1028500080819181A281B3818093990290939A02A1
:10286000A0939B02B0939C0280E00E9443068823C1
:1028700009F404CD809177028F5F8093770264E33F
:1028800074E071CE81E00E9443068823A9F2C090D3
:102890000801D0900901E0900A01F0900B012DECA5
:1028A0003CEC4CEC5DE3C701B6010E94BB1A87FD0E
:1028B000C3CF2DEC3CEC4CEC5DE3C701B6010E94AC
:1028C000AD19B2CF61E082E00E943E0885EE91E052
:1028D0000E940C09C9CF80911401882309F4AFC06C
:1028E00060E087E00E943E088CE292E00E940C09C2
:1028F00060E08BE00E943E0865E972E08CE090E0C9
:102900000E94140BFC01608171818281938141E0FE
:1029100050E00E94690960E08FE00E943E088FED60
:102920000E94770861E080E00E943E0860910C01FF
:1029300070910D0180910E0190910F0141E050E0E6
:102940000E94690961E084E00E943E088FED0E94C8
:10295000770861E087E00E943E0881E392E00E94F0
:102960000C0982E00E944306882309F448C0C09005
:102970000C01D0900D01E0900E01F0900F0120E0CD
:1029800030E048EC51E4C701B6010E94EC1787FF24
:1029900036C02DEC3CEC4CEC5DE3C701B6010E9467
:1029A000AE1960930C0170930D0180930E0190930A
:1029B0000F0183E00E944306882399F06CE071E0E8
:1029C0008CE090E00E94E40AFC0180819181A28168
:1029D000B3818093950290939602A0939702B0934F
:1029E000980280E00E944306882309F447CC809136
:1029F00077028F5F8093770266E474E0B4CD81E064
:102A00000E9443068823A9F2C0900C01D0900D01CA
:102A1000E0900E01F0900F012DEC3CEC4CEC5DE3EE
:102A2000C701B6010E94BB1A87FDC3CF2DEC3CEC59
:102A30004CEC5DE3C701B6010E94AD19B2CF61E075
:102A400082E00E943E0885EE91E00E940C09C9CF09
:102A500060E087E00E943E088CE292E00E940C0950
:102A600060E08BE00E943E0861EA72E080E190E065
:102A70000E94140BFC01608171818281938141E08D
:102A800050E00E94690960E08EE00E943E088FEDF0
:102A90000E94770861E080E00E943E086091730226
:102AA00070917402809175029091760241E050E03D
:102AB0000E94690961E084E00E943E088FED0E9457
:102AC000770861E087E00E943E0881E392E00E947F
:102AD0000C0920E030E040EA50E46091730270910C
:102AE000740280917502909176020E94EC1787FF24
:102AF00043C082E00E9443068823F1F120E030E0E9
:102B000040E05FE3609173027091740280917502FE
:102B1000909176020E94AE196093730270937402D2
:102B2000809375029093760280E00E94430688238A
:102B300009F4A4CB809177028F5F809377026CE4D5
:102B400074E0CE0107960E94A60A46E0BE01695FC6
:102B50007F4FCE0101960E948B08CE0101960E9404
:102B60009E0ACE0107960E949E0A61E081E00E94C3
:102B70003E088BE392E026CC20E030E0A901609192
:102B800073027091740280917502909176020E9496
:102B9000BB1A1816CCF083E00E944306882321F26A
:102BA00063E772E080E190E00E94E40AFC0180812A
:102BB0009181A281B3818093A1029093A202A093FC
:102BC000A302B093A402B0CF81E00E944306882301
:102BD00011F320E030E040E05FE360917302709118
:102BE000740280917502909176020E94AD1994CF83
:102BF00080E00E944306882321F081E080937702E1
:102C00001CCC83E00E944306882309F437CB109242
:102C100077021092AD021092AE020E9480082ECB75
:102C2000823009F0BCC180917C028130C1F180F01A
:102C3000823009F4F7C0833009F020CB80E00E9495
:102C40004306882309F4A2C181E080937C0224C05A
:102C500068E574E0CE0107960E94A60A43E0BE0133
:102C6000695F7F4FCE0101960E940E09CE01019649
:102C70000E949E0ACE0107960E949E0A80E00E9452
:102C80004306882309F4FACA80917C028F5F8093FF
:102C90007C0281E08093AE026AE374E064CC60E081
:102CA00087E00E943E088CE292E00E940C0960E0FE
:102CB0008BE00E943E0861E972E088E190E00E94AA
:102CC000140BFC01608171818281938141E050E0AD
:102CD0000E94690960E08FE00E943E088FED0E942B
:102CE000770861E080E00E943E08609110017091D9
:102CF0001101809112019091130142E050E00E9475
:102D0000690961E084E00E943E088FED0E94770827
:102D100061E087E00E943E0881E392E00E940C0996
:102D200082E00E944306882309F45CC0C090100131
:102D3000D0901101E0901201F090130120E030E0FA
:102D400040E251E4C701B6010E94EC1787FF4AC078
:102D50002DEC3CEC4CEC5DE3C701B6010E94AE19D2
:102D600060931001709311018093120190931301ED
:102D700083E00E944306882399F060E171E088E1D6
:102D800090E00E94E40AFC0180819181A281B381DC
:102D90008093910290939202A0939302B093940235
:102DA00080E00E944306882309F468CA66E474E060
:102DB000CE0107960E94A60A40E0BE01695F7F4FE0
:102DC000CE0101960E948B08CE0101960E949E0AB8
:102DD000CE0107960E949E0A80917C028F5F8093AD
:102DE0007C024CCA81E00E944306882309F2C0900D
:102DF0001001D0901101E0901201F09013012DEC20
:102E00003CEC4CE950ECC701B6010E94BB1A87FDAF
:102E1000AFCF2DEC3CEC4CEC5DE3C701B6010E945A
:102E2000AD199ECF60E087E00E943E088CE292E000
:102E30000E940C0960E08BE00E943E086DE872E0A1
:102E400084E190E00E94140BFC0160817181828119
:102E5000938141E050E00E94690960E08EE00E94A9
:102E60003E088FED0E94770861E080E00E943E08F6
:102E7000609178027091790280917A0290917B0240
:102E800041E050E00E94690961E084E00E943E0850
:102E90008FED0E94770861E087E00E943E0881E3A1
:102EA00092E00E940C0920E030E040EA50E460919A
:102EB00078027091790280917A0290917B020E944F
:102EC000EC1787FF27C082E00E944306882311F198
:102ED00020E030E040E05FE3609178027091790299
:102EE00080917A0290917B020E94AE1960937802E1
:102EF0007093790280937A0290937B0280E00E9423
:102F00004306882309F4BAC980917C028F5F8093BD
:102F10007C0215CE20E030E0A9016091780270912A
:102F2000790280917A0290917B020E94BB1A181656
:102F3000CCF083E00E944306882301F368E772E047
:102F400084E190E00E94E40AFC0180819181A281E9
:102F5000B38180938D0290938E02A0938F02B093E1
:102F60009002CCCF81E00E944306882311F320E039
:102F700030E040E05FE360917802709179028091E7
:102F80007A0290917B020E94AD19B0CF83E00E943B
:102F90004306882309F472C910927C023ACE10923B
:102FA000AD026CC9CF93DF93C2E5D4E02697CE0182
:102FB0000E949E0A84E0C232D807C1F78EE594E0F1
:102FC0000E949E0A88E594E00E949E0A82E594E0B1
:102FD000DF91CF910C949E0A0E942E1808F481E094
:102FE0000895E89409C097FB3EF4909580957095FC
:102FF00061957F4F8F4F9F4F9923A9F0F92F96E945
:10300000BB279395F695879577956795B795F111B9
:10301000F8CFFAF4BB0F11F460FF1BC06F5F7F4F56
:103020008F4F9F4F16C0882311F096E911C0772368
:1030300021F09EE8872F762F05C0662371F096E871
:10304000862F70E060E02AF09A95660F771F881F40
:10305000DAF7880F9695879597F90895990F0008E4
:10306000550FAA0BE0E8FEEF16161706E807F9075A
:10307000C0F012161306E407F50798F0621B730BF5
:10308000840B950B39F40A2661F0232B242B252B76
:1030900021F408950A2609F4A140A6958FEF811D19
:1030A000811D08950E9465180C94D6180E94C818B6
:1030B00038F00E94CF1820F0952311F00C94BF181F
:1030C0000C94C51811240C940A190E94E71870F387
:1030D000959FC1F3950F50E0551F629FF001729FBD
:1030E000BB27F00DB11D639FAA27F00DB11DAA1FCC
:1030F000649F6627B00DA11D661F829F2227B00D19
:10310000A11D621F739FB00DA11D621F839FA00DA3
:10311000611D221F749F3327A00D611D231F849FF3
:10312000600D211D822F762F6A2F11249F5750404A
:103130009AF0F1F088234AF0EE0FFF1FBB1F661FC5
:10314000771F881F91505040A9F79E3F510580F08E
:103150000C94BF180C940A195F3FE4F3983ED4F323
:10316000869577956795B795F795E7959F5FC1F732
:10317000FE2B880F911D9695879597F9089597F9DD
:103180009F6780E870E060E008959FEF80EC08950D
:1031900000240A9416161706180609060895002436
:1031A0000A9412161306140605060895092E0394B0
:1031B000000C11F4882352F0BB0F40F4BF2B11F424
:1031C00060FF04C06F5F7F4F8F4F9F4F089557FD83
:1031D0009058440F551F59F05F3F71F04795880F85
:1031E00097FB991F61F09F3F79F08795089512161C
:1031F00013061406551FF2CF4695F1DF08C01616C8
:1032000017061806991FF1CF869571056105089478
:103210000895E894BB2766277727CB0197F908958F
:10322000F999FECF92BD81BDF89A992780B508958E
:10323000262FF999FECF1FBA92BD81BD20BD0FB6D2
:10324000F894FA9AF99A0FBE019608952F923F9238
:103250004F925F926F927F928F929F92AF92BF92A6
:10326000CF92DF92EF92FF920F931F93CF93DF9352
:10327000CDB7DEB7CA1BDB0B0FB6F894DEBF0FBEAF
:10328000CDBF09942A88398848885F846E847D84FC
:103290008C849B84AA84B984C884DF80EE80FD80FE
:1032A0000C811B81AA81B981CE0FD11D0FB6F89474
:1032B000DEBF0FBECDBFED01089597FB072E16F4BC
:1032C000009407D077FD09D00E94991907FC05D01A
:1032D0003EF4909581959F4F0895709561957F4F2D
:1032E0000895A1E21A2EAA1BBB1BFD010DC0AA1F47
:1032F000BB1FEE1FFF1FA217B307E407F50720F05F
:10330000A21BB30BE40BF50B661F771F881F991FD9
:103310001A9469F760957095809590959B01AC0122
:10332000BD01CF010895EE0FFF1F0590F491E02D30
:103330000994AA1BBB1B51E107C0AA1FBB1FA617FC
:10334000B70710F0A61BB70B881F991F5A95A9F74E
:1033500080959095BC01CD0108955058BB27AA27B0
:103360000E94C5190C94D6180E94C81838F00E9403
:10337000CF1820F039F49F3F19F426F40C94C518A7
:103380000EF4E095E7FB0C94BF18E92F0E94E718B4
:1033900058F3BA17620773078407950720F079F48A
:1033A000A6F50C9409190EF4E0950B2EBA2FA02D5A
:1033B0000B01B90190010C01CA01A0011124FF27E2
:1033C000591B99F0593F50F4503E68F11A16F040DD
:1033D000A22F232F342F4427585FF3CF46953795DC
:1033E0002795A795F0405395C9F77EF41F16BA0BA1
:1033F000620B730B840BBAF09150A1F0FF0FBB1F4F
:10340000661F771F881FC2F70EC0BA0F621F731F97
:10341000841F48F4879577956795B795F7959E3FF4
:1034200008F0B0CF9395880F08F09927EE0F979585
:10343000879508950E942E1A0C94D6180E94CF18D2
:1034400058F00E94C81840F029F45F3F29F00C940E
:10345000BF1851110C940A190C94C5180E94E71852
:1034600068F39923B1F3552391F3951B550BBB27B3
:10347000AA2762177307840738F09F5F5F4F220FF8
:10348000331F441FAA1FA9F335D00E2E3AF0E0E8EF
:1034900032D091505040E695001CCAF72BD0FE2F39
:1034A00029D0660F771F881FBB1F261737074807CD
:1034B000AB07B0E809F0BB0B802DBF01FF27935885
:1034C0005F4F3AF09E3F510578F00C94BF180C9472
:1034D0000A195F3FE4F3983ED4F386957795679594
:1034E000B795F7959F5FC9F7880F911D96958795BA
:1034F00097F90895E1E0660F771F881FBB1F6217D9
:1035000073078407BA0720F0621B730B840BBA0B96
:10351000EE1F88F7E09508950E94EF1888F09F57F6
:1035200098F0B92F9927B751B0F0E1F0660F771FE7
:10353000881F991F1AF0BA95C9F714C0B13091F0DD
:103540000E940919B1E008950C940919672F782F8A
:103550008827B85F39F0B93FCCF3869577956795A2
:10356000B395D9F73EF490958095709561957F4F0E
:103570008F4F9F4F08950E942E1808F48FEF0895E3
:103580000E942E18880B990B08950F931F93CF93C9
:10359000DF938230910510F482E090E0E091BC046A
:1035A000F091BD0430E020E0B0E0A0E0309799F465
:1035B0002115310509F44AC0281B390B2430310587
:1035C000D8F58A819B816115710589F1FB0193838F
:1035D0008283FE0111C0408151810281138148170D
:1035E0005907E0F04817590799F4109761F01296BF
:1035F0000C93129713961C933296CF01DF91CF91C3
:103600001F910F9108950093BC041093BD04F4CF53
:103610002115310551F04217530738F0A901DB019C
:103620009A01BD01DF01F801C1CFEF01F9CF9093FD
:10363000BD048093BC04CDCFFE01E20FF31F819344
:1036400091932250310939832883D7CF2091BA042E
:103650003091BB04232B41F420911A0130911B01BE
:103660003093BB042093BA042091180130911901C2
:103670002115310541F42DB73EB740911C01509101
:103680001D01241B350BE091BA04F091BB04E21735
:10369000F307A0F42E1B3F0B2817390778F0AC0175
:1036A0004E5F5F4F2417350748F04E0F5F1F509352
:1036B000BB044093BA04819391939FCFF0E0E0E084
:1036C0009CCFCF93DF930097E9F0FC0132971382F0
:1036D0001282A091BC04B091BD04ED0130E020E065
:1036E0001097A1F420813181820F931F2091BA0499
:1036F0003091BB042817390709F061C0F093BB046F
:10370000E093BA04DF91CF910895EA01CE17DF0765
:10371000E8F54A815B819E0141155105B1F7E90148
:10372000FB83EA8349915991C40FD51FEC17FD071C
:1037300061F4808191810296840F951FE90199833C
:103740008883828193819B838A83F0E0E0E01296F4
:103750008D919C9113970097B9F52D913C911197FC
:10376000CD010296820F931F2091BA043091BB04C1
:103770002817390739F6309751F51092BD04109289
:10378000BC04B093BB04A093BA04BCCFD383C28360
:1037900040815181840F951FC817D90761F44E5F8E
:1037A0005F4F88819981480F591F518340838A81D7
:1037B0009B81938382832115310509F0B0CFF0936B
:1037C000BD04E093BC049ECFFD01DC01C0CF138299
:1037D0001282D7CFB0E0A0E0E0EFFBE10C94281913
:1037E0008C01009751F4CB010E94C51A8C01C801CD
:1037F000CDB7DEB7E0E10C944419FC01E60FF71FEA
:103800009C0122503109E217F30708F49DC0D90149
:10381000CD91DC911197C617D70798F0C530D10527
:1038200030F3CE0104978617970708F3C61BD70B12
:103830002297C193D1936D937C93CF010E94611B1A
:10384000D6CF5B01AC1ABD0A4C018C0E9D1EA09117
:10385000BC04B091BD04512C412CF12CE12C1097EB
:1038600031F58091BA049091BB048815990509F04F
:103870005CC04616570608F058C080911801909118
:103880001901009741F48DB79EB740911C015091EA
:103890001D01841B950BE817F90708F055C0F0933C
:1038A000BB04E093BA04F90171836083A0CF8D91CA
:1038B0009C91119712966C90129713967C90139787
:1038C000A815B90559F56C0142E0C40ED11CCA1403
:1038D000DB0420F1AC014A195B09DA011296159755
:1038E00080F06282738251834083D9016D937C930F
:1038F000E114F10471F0D7011396FC93EE93129743
:1039000076CF22968C0F9D1FF90191838083F3015E
:10391000EFCFF093BD04E093BC0469CF481659067D
:1039200008F42C017D01D3019ACFCB010E94C51A66
:103930007C01009749F0AE01B8010E94A71CC801A4
:103940000E94611B870153CF10E000E050CFFB01C4
:10395000DC0102C001900D9241505040D8F708950B
:10396000FB01DC0101900D920020E1F7089510E0C9
:10397000C2E7D0E004C0FE010E9493192196C3372C
:08398000D107C9F7F894FFCF4D
:10398800000070410000704100007041000070416B
:103998000000A040010101010000BE0480000000F9
:1039A800400014005400040506075E00BC007701BF
:1039B800000000001D01F0007704C600E900D600F1
:1039C800C7000000000022038202AF026F03E0027A
:1039D800BE02D20200000000710882027704760459
:1039E800434F4E464947006E616E00696E66006F30
:1039F8007666004645524D454E54455200202043B8
:103A080048494C4C455220200020205359535445D6
:103A18004D20200054414E4B20310054414E4B2044
:103A2800320054414E4B20330054414E4B20340059
:103A3800464C5549440048454154004859535400A0
:103A4800455849540054454D5045524154555245E6
:103A580000434F4E54524F4C004645524D454E542C
:103A68004552203100444953434F4E4E4543544537
:103A780044004645524D454E544552203200464575
:103A8800524D454E5445522033004645524D454E01
:103A980054455220340054313A004F4646200054D1
:103AA800323A0054333A0054343A20005365743A99
:103AB800005052455353202B2F2D0050524553533D
:0A3AC8002042544E204D454E55009B
:00000001FF
