:100000000C9473000C949B000C949B000C949B002C
:100010000C949B000C949B000C949B000C949B00F4
:100020000C949B000C949B000C949B000C949B00E4
:100030000C949B000C949B000C949B000C949B00D4
:100040000C9443200C949B000C94CD200C94A7207E
:100050000C949B000C949B000C949B000C949B00B4
:100060000C945D1E0C949B00005EBCE2613FDD833E
:10007000C29C7E20A3FD1F41009D23BE46DB65F888
:100080008C11AF32CA57E974000000002400270029
:100090002A0000000000250028002B0000000000BE
:1000A00023002600290004040404040404040202BA
:1000B00002020202030303030303010204081020E7
:1000C00040800102040810200102040810200000F2
:1000D0000008000201000003040700000000000007
:1000E00000004A1E052111241FBECFEFD8E0DEBF5D
:1000F000CDBF24E0A4E4B2E001C01D92A83BB2074A
:10010000E1F712E0A0E0B1E0E8ECFBE402C005900A
:100110000D92A434B107D9F710E0C2E7D0E004C0D3
:100120002197FE010E94B322C137D107C9F70E946F
:100130009E200C94D7250C94000085EC8093BC0085
:1001400010928E040895811104C085E88093BC004C
:10015000089585EC8093BC00089590936704809384
:100160006604089590936B0480936A040895AC012B
:1001700020916804260F3327331F21323105F4F410
:1001800080918E048430E1F490E00FC0E091680427
:10019000292F30E0E20FF32FF11D240F351FD90175
:1001A0002C91EA5BFB4F20839F5F961778F3809139
:1001B0006804680F6093680480E0089581E0089502
:1001C00082E00895089508950895E09131048091A2
:1001D0003004E81730F4F0E0E05FFB4F808190E0FE
:1001E00008958FEF9FEF089590913104809130042E
:1001F000981758F4E92FF0E0E05FFB4F208130E0E2
:100200009F5F90933104C90108952FEF3FEFFBCF1B
:100210008091300490913104891B990B0895CF92FD
:10022000DF92EF92FF920F931F93CF93DF938C0196
:100230006B017A0180910F04882399F0D0E0C0E02F
:10024000CE15DF0590F4D801ED91FC910190F0817D
:10025000E02DD601AC0FBD1F6C91C8010995219608
:10026000EFCF642FC6010E94B700C701DF91CF9185
:100270001F910F91FF90EF90DF90CF900895CF9353
:10028000DF931F92CDB7DEB7FC01698390910F0415
:100290009923F1F090913204903250F081E090E097
:1002A0009383828390E080E00F90DF91CF91089557
:1002B00080913304E82FF0E0E151FC4F9981908365
:1002C0008F5F809333048093320481E090E0ECCF21
:1002D00061E0CE0101960E94B70081E090E0E4CF9A
:1002E00081E080930F046093EE0310923304109228
:1002F00032040895FC011382128288EE93E0A0E09C
:10030000B0E084839583A683B7838CE491E09183E6
:1003100080830895019709F008956F3F7F4FE1F7BB
:1003200084E394E00E947A01F7CF8330B1F060F06B
:100330008730E9F0883009F1843021F5E0E8F0E019
:1003400080818F7D80830895813069F0823021F42F
:1003500084B58F7D84BD08950895E0E8F0E0808144
:100360008F778083089584B58F7784BD0895E0EBFF
:10037000F0E080818F7780830895E0EBF0E080816A
:100380008F7D80830895CF93DF93282F30E0F9018C
:10039000E253FF4F8491F901E654FF4FD491F901E4
:1003A000EA55FF4FC491CC23B1F081110EC0EC2F60
:1003B000F0E0EE0FFF1FE456FF4FA591B491EC91D2
:1003C000ED2331F490E080E008C00E949501EFCF6A
:1003D00081E090E002C090E080E0DF91CF9108954D
:1003E0001F93CF93DF93282F30E0F901E253FF4FA3
:1003F0008491F901E654FF4F1491F901EA55FF4F3A
:10040000C491CC23A9F0D62F811116C0EC2FF0E0B7
:10041000EE0FFF1FEE56FF4FA591B4918FB7F894E2
:10042000D1110DC09C91E12FE095E923EC938FBF92
:10043000DF91CF911F9108950E949501E7CFEC9134
:10044000E12BEC93F4CFECEBF0E080818A7B8083AE
:1004500060E082E10E94F00160E083E10E94F0012F
:10046000089510928E0481E08093900410928F047E
:1004700061E082E10E94F00161E083E10E94F0010D
:10048000E9EBF0E080818E7F808380818D7F8083A7
:1004900088E48093B80085E48093BC000895EF92CF
:1004A000FF920F931F93CF93DF9391E090934504B6
:1004B000811107C0DF91CF911F910F91FF90EF90B5
:1004C0000895C8EBD0E0F8800AEB10E0F801E08076
:1004D0000E9423020E943102F801E082F882EACFF2
:1004E00010923104109230041092330410923204AE
:1004F0000E94310282EE90E00E94AD0083EE90E017
:100500000E94B2000895CF93DF9390E0FC01E6547F
:10051000FF4F24918A559F4FFC018491882319F144
:1005200090E0880F991FFC01E857FF4FA591B49107
:10053000FC01EE56FF4FC591D491662349F062301D
:10054000A9F08FB7F894EC91E22BEC938FBF0BC01E
:100550009FB7F8948C91E22FE0958E238C9388813D
:10056000E823E8839FBFDF91CF9108959FB7F89468
:100570003C91822F809583238C93E881E22BE88342
:100580009FBFF1CF789484B5826084BD84B58160CB
:1005900084BD85B5826085BD85B5816085BDEEE68B
:1005A000F0E0808181608083E1E8F0E0108280816A
:1005B00082608083808181608083E0E8F0E08081D8
:1005C00081608083E1EBF0E0808184608083E0EBF8
:1005D000F0E0808181608083EAE7F0E080818460E0
:1005E000808380818260808380818160808380813C
:1005F000806880831092C10008958230910538F0A0
:10060000880F991F880F991F05970197F1F7089593
:100610003FB7F8948091EA039091EB03A091EC032B
:10062000B091ED0326B5A89B05C02F3F19F00196A8
:10063000A11DB11D3FBFBA2FA92F982F8827BC013C
:10064000CD01620F711D811D911D660F771F881FDF
:10065000991F660F771F881F991F08954F925F9209
:100660006F927F928F929F92AF92BF92EF92FF9282
:100670000F931F93CF93DF93413280F081E0DF919E
:10068000CF911F910F91FF90EF90BF90AF909F90EF
:100690008F907F906F905F904F900895D22FC42FCE
:1006A0007B01182F0E9408034B015C0190918E047E
:1006B000992329F18091410490914204A09143042F
:1006C000B0914404892B8A2B8B2B81F30E94080361
:1006D000681979098A099B094090410450904204A5
:1006E00060904304709044044616570668067906E5
:1006F000E8F6809140040E944F0285E0C0CF82E07E
:1007000080938E04009390048FEF80938D04109259
:10071000B204C093B1040AC0E92FF0E0D701AE0FD4
:10072000BF1F8C91EF56FB4F80839F5F9C17A0F3F8
:100730001092B304812F90E0880F991F1091B30499
:10074000812B8093B30480918F048130A1F185EED9
:100750008093BC000E9408034B015C01DD2309F477
:1007600062C080918E04823009F05DC080914104A6
:1007700090914204A0914304B0914404892B8A2BA8
:100780008B2B61F30E940803681979098A099B0978
:10079000009141041091420420914304309144049B
:1007A0000617170728073907C8F6809140040E94EA
:1007B0004F0285E064CF10928F040E9408034B0122
:1007C0005C0104C08091BC0083FF29C08091B30408
:1007D0008093BB008091410490914204A091430416
:1007E000B0914404892B8A2B8B2B61F30E94080360
:1007F000681979098A099B09009141041091420402
:10080000209143043091440406171707280739073D
:10081000C8F6809140040E944F0285E030CF85ECFD
:100820008093BC0097CF80918D048F3F61F08091C1
:100830008D04803251F080918D04803311F084E07A
:100840001ECF83E01CCF80E01ACF82E018CF0F9339
:1008500040913204062F21E06FEE73E08091EE03A9
:100860000E942E03109233041092320410920F044F
:100870000F91089561E00E94270408952FB7F8941E
:100880006091E6037091E7038091E8039091E9039A
:100890002FBF0895089508958F929F92AF92BF92AF
:1008A000CF92DF92EF92FF926B017C010E940803CE
:1008B0004B015C011BC021E0C21AD108E108F1081C
:1008C00088EE880E83E0981EA11CB11CC114D104CF
:1008D000E104F10459F00E940803681979098A09B2
:1008E0009B09683E73408105910528F7C114D10426
:1008F000E104F10459F7FF90EF90DF90CF90BF90A3
:10090000AF909F908F9008950895DC01ED91FC9138
:100910000190F081E02D09950895DB0114964D9129
:100920005C9115976D917C91DC01ED91FC910280B9
:10093000F381E02D09950895CF92DF92EF92FF9217
:100940000F931F93CF93DF938C01DB01D0E0C0E0C6
:100950007A0181E0E81AF108452BA1F0F8018081C5
:100960009181FC01208131816D01FFEFCF1ADF0AF7
:100970006C91C801F9010995892B21F02196A701F5
:10098000D601E6CFCE01DF91CF911F910F91FF905D
:10099000EF90DF90CF900895019709F008956F3F91
:1009A0007F4FE1F7E8E4F3E01382128288EE93E0F0
:1009B000A0E0B0E084839583A683B7838AE391E0C7
:1009C0009183808385EC90E09587848784EC90E028
:1009D0009787868780EC90E0918B808B81EC90E00C
:1009E000938B828B82EC90E0958B848B86EC90E0ED
:1009F000978B868B118E128E138E148ECFCFFC01A7
:100A0000938D848D981720F4891B990B0197089575
:100A10002FE330E0291B3109820F932F911D089598
:100A2000FC01918D828D981761F0A28DAE0FBF2FC2
:100A3000B11D5D968C91928D9F5F9F73928F90E018
:100A400008958FEF9FEF0895FC01918D828D981787
:100A500031F0828DE80FF11D858D90E008958FEFC4
:100A60009FEF0895FC01218D30E0205C3F4F828D87
:100A7000A901481B5109CA018F739927089588E479
:100A800093E00E94320521E0892B09F420E0822FB7
:100A90000895CF92DF92EF92FF921F93CF93DF934F
:100AA000EC016A017B01122F60E079E08DE390E0B8
:100AB000A70196010E949122215031094109510953
:100AC0005695479537952795E889F98982E080837F
:100AD000C11481EED806E104F10421F0211580E172
:100AE000380798F0E889F989108260E874E88EE1A7
:100AF00090E0A70196010E949122215031094109FD
:100B000051095695479537952795EC85FD85308396
:100B1000EE85FF852083188EEC89FD891083EA8994
:100B2000FB89808180618083EA89FB89808188607C
:100B30008083EA89FB89808180688083EA89FB89D8
:100B400080818F7D8083DF91CF911F91FF90EF9007
:100B5000DF90CF900895FC01A48DA80FB92FB11D8F
:100B6000A35ABF4F2C91848D90E001968F7390789B
:100B7000848FA689B7892C93A089B1898C918370C1
:100B800080648C93938D848D981308950288F389E3
:100B9000E02D80818F7D8083F8CF0F931F93CF93BB
:100BA000DF93EC0181E0888F9B8D8C8D9817B1F0DD
:100BB000062F8B8D90E001968F739078182F8C8D77
:100BC00081131EC00FB607FCFACFE889F98980812E
:100BD00085FFF5CFCE010E94AB05F1CFE889F989F9
:100BE000808185FFE5CF9FB7F894EE89FF89608308
:100BF000E889F98980818370806480839FBF10C0F9
:100C0000EB8DEC0FFD2FF11DE35AFF4F00839FB7D3
:100C1000F8941B8FEA89FB898081806280839FBF63
:100C200081E090E0DF91CF911F910F910895CF93D4
:100C3000DF93EC01888D811104C00DC00FB607FE53
:100C40000DC0EA89FB89808185FDF8CFA889B98923
:100C50008C9186FFF3CFDF91CF910895808185FF3E
:100C6000F0CFE889F989808185FFEBCFCE010E9422
:100C7000AB05E7CF80E090E0892B21F00E943F0593
:100C8000811101C008950E940000FCCF1F93CF93F3
:100C9000DF93EC01162F6C8184E394E00E947001D5
:100CA0006B85612BE0913404F09135040190F08163
:100CB000E02D84E394E0099584E394E00E943A04F3
:100CC000DF91CF911F9108950F931F93CF938C01C4
:100CD000C62F64600E94460681E090E00E94FD02FB
:100CE0006C2F6B7FC8010E94460682E390E00E9451
:100CF000FD02CF911F910F9108951F93CF93DF9322
:100D0000EC01162F0E944606612FCE010E94640658
:100D1000DF91CF911F910895EF92FF920F931F9350
:100D2000CF937C01C42F862F807F90E1699F800143
:100D30001124682F642BC7010E947D066C2F602B45
:100D4000C7010E947D06CF911F910F91FF90EF90F8
:100D5000089528E0FC01238760E00E94460608957C
:100D6000FC016681262F246026836C6040E00E948F
:100D70008C060895CF93DF93CDB7DEB728970FB6D3
:100D8000F894DEBF0FBECDBF28E0EEE1F1E0DE015A
:100D9000119601900D922A95E1F7FC012085241708
:100DA00010F44FEF420F50E0440F551F21E030E0A8
:100DB0002C0F3D1F420F531FFA012081620F606804
:100DC00040E00E948C0628960FB6F894DEBF0FBE56
:100DD000CDBFDF91CF91089540E062E00E948C0684
:100DE00080ED97E00E94FD02089540E061E00E94DE
:100DF0008C0680ED97E00E94FD020895CF93DF936B
:100E0000EC01423018F08D8188608D834887222361
:100E100019F0413009F447C062E370E080E090E0EF
:100E20000E944C046B85CE010E94460668EE73E07A
:100E300080E090E00E944C0460E3CE010E947D06B9
:100E400084E991E10E94FD0260E3CE010E947D06EB
:100E500084E991E10E94FD0260E3CE010E947D06DB
:100E600086E990E00E94FD0260E2CE010E947D06CC
:100E70006D81606240E0CE010E948C0684E08E832A
:100E8000CE010E94B006CE010E94F50682E08F835B
:100E900040E066E0CE010E948C06CE010E94EC0686
:100EA000DF91CF9108958D8184608D83B5CFCF93ED
:100EB000DF93EC0184E394E00E9470021D8220E045
:100EC0004A856985CE010E94FE06DF91CF91089583
:100ED0000E9457070895FC01138212828EE291E06E
:100EE000918380836483418722871386089541E03C
:100EF0000E948C0681E090E00895089590E080E0E3
:100F00000895FC01768B658B089590E080E084174E
:100F1000950740F4FB01E80FF91F2081211104C05F
:100F20000196F5CF81E0089580E00895813824EEA0
:100F3000920774F0BC01072E000C880B990B0E94DD
:100F4000132120E030E040E05CE30E94722108952C
:100F500060E070E08EEF92EC0895FA01818190E0FC
:100F6000982F8827990F990F990F208130E0220F31
:100F7000331F220F331F220F331F822B932BDB01D2
:100F80002C91203109F0089567816623E1F3880FE1
:100F9000991F880F991F880F991F9C01207870E076
:100FA0008681AB01481B5109CA019695982F882765
:100FB000979587950E947D22CB01820F931F809782
:100FC000E2CFFC012181211101C0089561E08281FD
:100FD0000E94F001FACFFC012181211101C0089586
:100FE00060E082810E94F001FACF6A3069F06B30D4
:100FF00041F0693019F08EEE92E008958EE590E0B0
:10100000089587E791E008958CEB90E00895FC0146
:101010007287618717821086108289E0838381E05E
:101020008483858386830895CF93DF93EC0170E0FA
:1010300060E00E9481071982DF91CF9108950F939C
:101040001F93CF93DF93EC018B010E941408B8012A
:10105000CE010E940708DF91CF911F910F91089553
:10106000DC01E0E04FEF460F6623B1F09D012F5FFA
:101070003F4F8C918E27E82FEF70F0E0E859FF4F3B
:10108000949182958F70E82FF0E0E858FF4FE4913B
:10109000E927642FD901E6CF8E2F0895CF93DF93F0
:1010A000EB0167E0CE010E9430082F8191E08213AE
:1010B00090E0892FDF91CF910895DC011B961C925F
:1010C0001B971D961C921D971C961C921C9727E03F
:1010D00030E0FD01E20FF31F13822115310519F0F5
:1010E00021503109F6CF08950F931F93CF93DF93CB
:1010F000FC011081C181D281F8948981812B89837F
:101100008A81012F009580238A8383E090E00E94EA
:10111000FD028981802389838AE090E00E94FD029C
:101120008881812361F4C0E0789485E390E00E9497
:10113000FD028C2FDF91CF911F910F910895C1E097
:10114000F3CFFC01818592850E94740891E0813083
:1011500009F090E0892F0895CF92DF92EF92FF92ED
:10116000CF93DF93EC018D81882319F08881882348
:10117000C1F0CE010E94F5076C01990FEE08FF083F
:10118000CE010E94EB07C701B6010E944C04CE01BC
:101190000E94E107DF91CF91FF90EF90DF90CF9019
:1011A00008950E943E046B017C01CE010E94A108BB
:1011B0008111F0CF0E943E046C197D098E099F09B0
:1011C0006E3E72408105910580F3E4CF0F931F932B
:1011D000CF93DF938C01D0E0C1E001C0CC0FCC23D2
:1011E00039F0C8010E9474088823C1F3DC2BF6CFC4
:1011F0008D2FDF91CF911F910F9108951F93CF9362
:10120000DF93FC011081C181D28160FD19C0F89487
:101210009A81812F809589238A838981812B898373
:1012200081E490E00E94FD028A81182B1A83789451
:1012300085E090E00E94FD02DF91CF911F9108951B
:10124000F8949A81812F809589238A838981812BC3
:1012500089838AE090E00E94FD028A81182B1A831C
:10126000789487E390E00E94FD02E6CFFF920F930F
:101270001F93CF93DF938C01D62FF42EC1E005C0CE
:1012800060E0C8010E94FE08CC0FCC2329F08C2F0F
:101290008D23B1F361E0F5CFF11015C0F894D801BA
:1012A0001196ED91FC91129791818C9180958923F3
:1012B00081831196ED91FC91129792818C9180958A
:1012C000892382837894DF91CF911F910F91FF90B2
:1012D000089540E06CEC0E9436090895EF92FF9269
:1012E0000F931F93CF938C017B0140E065E50E9433
:1012F0003609C0E0C83050F4F701EC0FF11D40E0B2
:101300006081C8010E943609CF5FF4CFCF911F9151
:101310000F91FF90EF900895FF920F931F93CF933B
:10132000DF93FC01D08101811281F894F801818161
:10133000FD2EF0948F2181837894CDE7C15041F147
:1013400082E090E00E94FD02F80180818D23B1F3DC
:10135000F89482818F21828381818D2B818378947F
:1013600080EE91E00E94FD02F894F8018181F8225C
:10137000F18286E490E00E94FD02F8018081D8238A
:10138000C1E009F0C0E078948AE991E00E94FD0292
:101390008C2FDF91CF911F910F91FF9008950F93A4
:1013A0001F93CF93DF93EC018B0189859A850E946F
:1013B0008C09882391F101151105E9F0B80189859F
:1013C0009A850E946E09488168E489859A850E9401
:1013D00036098881811114C064E170E080E090E0FA
:1013E0000E944C0489859A850E948C0991E0813085
:1013F000A9F090E013C089859A850E946909E3CF1E
:10140000CE010E94EB0764E170E080E090E00E9472
:101410004C04CE010E94E107E5CF90E0892FDF91D7
:10142000CF911F910F910895CF93DF93EC018985A0
:101430009A850E948C0989859A850E94690948814C
:1014400064E489859A850E9436098C81811103C0E4
:10145000DF91CF9108956B81CE010E94AC08F8CF47
:10146000EF92FF920F931F93CF93DF93EC017B01D9
:101470008A0189859A850E948C09B70189859A8598
:101480000E946E0940E06EE489859A850E943609C3
:1014900040E0F801628189859A850E94360940E022
:1014A000F801638189859A850E943609F701808158
:1014B000803171F48E81811113C089859A850E94D3
:1014C0008C09DF91CF911F910F91FF90EF900895BC
:1014D00040E0F801648189859A850E943609EACF47
:1014E000B701CE010E94CF09ECCFCF92DF92EF92ED
:1014F000FF920F931F93CF937C018B016A01FC0134
:10150000818592850E948C0981110AC090E0892F03
:10151000CF911F910F91FF90EF90DF90CF900895A2
:10152000B801F701818592850E946E0940E06EEB5B
:10153000F701818592850E943609C0E0C93060F4C8
:1015400086010C0F111DF701818592850E94E60826
:10155000F8018083CF5FF2CFF701818592850E94E9
:101560008C0991E0813099F290E0D1CFEF92FF9217
:101570000F931F93CF937C018A010E94750AC82F95
:10158000882351F049E050E0B801C7010E94850767
:10159000F82E882341F0C0E08C2FCF911F910F913E
:1015A000FF90EF90089568E0C8010E943008F801AC
:1015B0009085891789F3CF2DEFCFEF92FF920F938C
:1015C0001F93CF93DF93CDB7DEB729970FB6F8946B
:1015D000DEBF0FBECDBF8C017B01AE014F5F5F4F01
:1015E0000E94B60A8823A1F0AE014F5F5F4FB7019A
:1015F000C8010E94AD0729960FB6F894DEBF0FBE52
:10160000CDBFDF91CF911F910F91FF90EF90089583
:1016100080E894EEF0CF0E94DD0A0E9496070895BC
:10162000CF93DF93CDB7DEB729970FB6F894DEBF1F
:101630000FBECDBFFB0120812031C9F0AE014F5F4D
:101640005F4F0E94B60A8823A1F08D818F3369F025
:1016500030F08F35C1F08F3731F48CE00BC08F3113
:1016600011F489E007C080E005C08AE003C08CE087
:1016700001C080E029960FB6F894DEBF0FBECDBF43
:10168000DF91CF9108958BE0F5CFBF92CF92DF929B
:10169000EF92FF920F931F93CF93DF93EC016B01B7
:1016A000042F1D85112379F01B861D861C8610E0F2
:1016B000812FDF91CF911F910F91FF90EF90DF90DD
:1016C000CF90BF9008950E948C09882369F0002371
:1016D00079F040E060EFCE010E94360901E0F12C84
:1016E000B12CEE24E3944DC01B861D861C86E0CFF2
:1016F00040E06CEECE010E943609F0CF813009F057
:101700004AC080E48E1580F6BB86B11002C081E02D
:101710008D878B81882341F290E080E088309105AD
:101720000CF04FC0F601E80FF91FDE01A80FB91F3A
:1017300013962C9120830196F1CF8B85E81648F4FF
:10174000FE01EF0DF11D8381802311E029F410E0EB
:1017500003C011E08E1110E011111FC088E08E153A
:1017600018F0EC86BE2C19C0BE2C17C0FE01EF0D80
:10177000F11D8381802B83831AC087E08F1508F4C5
:10178000C0CFCE010E947408182FCE010E947408A9
:10179000113009F4B3CF181781F2113039F3FE017B
:1017A000EF0DF11D8381902F909589238383612F05
:1017B000CE010E94FE08E394000FF9F6F39401E0D5
:1017C000DCCF11E075CFEF92FF920F931F93CF9371
:1017D000DF938C017B01D42FFC01818592850E94CF
:1017E0005D08C0E001C0CF5FDC1790F041E0B701B9
:1017F000F801818592850E94450B882351F0CD1315
:10180000F2CFB701C8010E944E08882361F301C0DE
:1018100080E0DF91CF911F910F91FF90EF9008959D
:10182000BF92CF92DF92EF92FF920F931F93CF93CD
:10183000DF93CDB7DEB729970FB6F894DEBF0FBEA2
:10184000CDBF8C016B01F42EB22EFB018081803163
:10185000A9F1F8E0F41740F48CE0841748F40F2E57
:10186000FCE0FF2EF02D04C00F2EF9E0FF2EF02D2E
:10187000AE014F5F5F4FB601C8010E94B60AE82E65
:101880008823F1F0EBE0FE16B9F0FCE0FF1629F03A
:101890008AE0F81679F08FE101C08FE79D819817F3
:1018A00079F08D83AE014F5F5F4FB601C8010E9492
:1018B000300A06C08FE3F2CF8FE5F0CFEE24E39439
:1018C000B11022C0F801F38287818230E8F0F12C58
:1018D00001C0F394F8018781F816B0F483818C304D
:1018E00099F04F2DBE016F5F7F4FC8010E94E30B3F
:1018F000BE016F5F7F4FC8010E94100BF8019381FA
:10190000981738F78383E5CF8E2D29960FB6F89474
:10191000DEBF0FBECDBFDF91CF911F910F91FF9022
:10192000EF90DF90CF90BF9008951F93CF93DF93F8
:10193000EC01162F60E0812F0E948302612F70E07E
:10194000FB01E654FF4FE491E883FB01EA55FF4FAA
:10195000E491F0E0EE0FFF1FE456FF4F8591949164
:101960009A838983CE010E945D08DF91CF911F91F8
:1019700008954F925F926F927F928F929F92AF9253
:10198000BF92CF92DF92EF92FF92CF93DF9300D07E
:1019900000D0CDB7DEB7609184027091850280914E
:1019A000860290918702C0908C02D0908D02E090C8
:1019B0008E02F0908F02A70196010E94CD224B016A
:1019C0005C0160918002709181028091820290910D
:1019D0008302A70196010E94CD222B013C01609158
:1019E0007C0270917D0280917E0290917F02A7011E
:1019F00096010E94CD2269837A838B839C836091B8
:101A00007002709171028091720290917302A5012F
:101A100094010E940C218823E4F460916C0270917F
:101A20006D0280916E0290916F02A30192010E945B
:101A30000C21882374F4609168027091690280918E
:101A40006A0290916B0229813A814B815C810E94EC
:101A50000C210F900F900F900F90DF91CF91FF907E
:101A6000EF90DF90CF90BF90AF909F908F907F903E
:101A70006F905F904F900895CF93DF93C82FD0E081
:101A8000FE01EA5DFE4F80810E94C301FE01E25625
:101A9000FD4F9081981751F0813051F090E0C2567F
:101AA000DD4F8883892FDF91CF91089590E0F7CFA4
:101AB00091E0F5CF85ED8093BC00409141045091B9
:101AC00042046091430470914404495F5F4F6F4F3B
:101AD0007F4F689412F876956795579547951694B9
:101AE000D1F78091BC0084FF1FC080914104909188
:101AF0004204A0914304B0914404892B8A2B8B2B80
:101B000081F3411551056105710549F085E38A9519
:101B1000F1F700004150510961097109E2CF80914C
:101B200040040E944F02089510928E040895CF93AE
:101B3000DF93EC0188819981009711F00E94812444
:101B4000198218821D821C821B821A82DF91CF911A
:101B50000895FC0180819181009711F00E948124F9
:101B600008950F931F93CF93DF938C01EB01FC013A
:101B700080819181892BB1F088819981892B51F1E4
:101B800084E894E0A0E0892B49F1F80122813381B7
:101B90008C819D812817390720F5F801808191817A
:101BA0000E94812488819981F801918380838A81B0
:101BB0009B81938382838C819D8195838483198209
:101BC00018821B821A821D821C82DF91CF911F9185
:101BD0000F91089580E090E0DC01D5CFA0FFDDCF2C
:101BE000D4CF68817981808191810E94D0258C81B8
:101BF0009D81F801958384831D821C82E6CFFC01C0
:101C00001182108213821282158214820E94B10DF9
:101C10000895FF920F931F93CF93DF93EC018B01F5
:101C2000F42E8CE393E00E94F50640E06F2D8CE3E8
:101C300093E00E94BA06B8018CE393E00E948D0401
:101C4000B801CE010E94FF0DCE01DF91CF911F910F
:101C50000F91FF9008950F931F93CF93DF93EC01A3
:101C60008B016F5F7F4F888199810E940A250097C1
:101C700051F0998388831B830A8381E0DF91CF91A0
:101C80001F910F91089580E0F9CFCF93DF93EC017E
:101C900028813981232B29F02A813B812617370798
:101CA00070F4CE010E942B0E882351F08C819D810F
:101CB000892B49F4E881F981108281E001C081E03B
:101CC000DF91CF91089581E0FBCFEF92FF920F93C8
:101CD0001F93CF93DF93EC017B018A01BA010E942D
:101CE000450E882379F01D830C83B7018881998183
:101CF0000E94D025CE01DF91CF911F910F91FF90CF
:101D0000EF900895CE010E94970DF4CFCF93DF930B
:101D1000EC01FB018617970749F06081718161151D
:101D2000710541F0448155810E94650ECE01DF911D
:101D3000CF9108950E94970DF9CFFC011182108276
:101D400013821282158214820E94860E0895FC016D
:101D5000118210821382128215821482611571051C
:101D600051F0FB0101900020E9F73197AF01461BCC
:101D7000570B0E94650E08950F931F93CF93DF9327
:101D8000EC018B01019759F0CD2B21F40F3F1F4F30
:101D900009F468C0DF91CF911F910F9108956F3FB3
:101DA0007F4F91F722E040E167E28CE393E00E94ED
:101DB0006B076DE08EE293E00E94950C6CE080E290
:101DC00093E00E94950C6EE273E089E093E00E943C
:101DD0001F0860E273E082EF92E00E941F086AE54C
:101DE00071E080EE92E00E94A70E64E671E086EE5C
:101DF00092E00E94A70E60E771E08CEE92E00E94F4
:101E0000A70E6BE771E080EB92E00E94A70E62E8FC
:101E100071E086EB92E00E94A70E69E871E08CEB1E
:101E200092E00E94A70E60E971E082EC92E00E94CD
:101E3000A70E67E971E088EC92E00E94A70E6DE9B9
:101E400071E08EEC92E00E94A70E62EA71E084EDF0
:101E500092E00E94A70E67EA71E08AED92E00E948C
:101E6000A70E92CFC0EED2E082E0C03BD80729F0A7
:101E70002697CE010E94A90DF7CFC2EFD2E082E0F3
:101E8000C03ED80709F486CF2697CE010E94A90D3F
:101E9000F6CFDF92EF92FF920F931F93CF93DF93D2
:101EA000CDB7DEB7A1970FB6F894DEBF0FBECDBF9A
:101EB0007C01CB01BA01D22E19A221E02D1520F40C
:101EC0008E010F5D1F4F0EC00F2EFAE0DF2EF02D9A
:101ED000F7CFE95CD801EE938D016115710581059D
:101EE000910579F02D2D30E050E040E00E949122E4
:101EF000E62F622F732F842F952FEA3054F7E05D81
:101F0000E9CF1097F9F0FD0101900020E9F7319732
:101F1000AF014A1B5B0BD701ED91FC910280F3816D
:101F2000E02DB801C7010995A1960FB6F894DEBF60
:101F30000FBECDBFDF91CF911F910F91FF90EF901A
:101F4000DF90089590E080E0EFCF2115310549F44E
:101F5000DC01ED91FC910190F081E02D642F099559
:101F600008950E94490F08959A01AB0170E060E066
:101F70000E94A50F08956115710581F0FB01019084
:101F80000020E9F73197AF01461B570BDC01ED91BB
:101F9000FC910280F381E02D0995089590E080E0A6
:101FA00008954F925F926F927F92AF92BF92CF92BD
:101FB000DF92EF92FF920F931F93CF93DF9300D0A6
:101FC00000D01F92CDB7DEB75C016A017B012D8383
:101FD000AB019601CB01B6010E94E023811151C0F3
:101FE00026013701E89477F821E029832FEF3FEFAE
:101FF0004FE75FE7C301B2010E94E02381110BC0EC
:102000002FEF3FEF4FE75FE7C301B2010E940C21C2
:1020100018160CF4198289818823D1F12FEF3FEF34
:102020004FE75FE4C701B6010E94DB2318160CF4EA
:102030004AC02FEF3FEF4FE75FECC701B6010E94A8
:102040000C2188230CF446C020E030E0A901C70130
:10205000B6010E940C2188230CF443C0712C612C22
:1020600010E060E070E080E09FE32D81121708F03F
:1020700042C020E030E040E251E40E943A231F5F7A
:10208000F4CF6CEA71E0C5010E94BB0F8C0106C061
:1020900060EB71E0C5010E94BB0F8C01C8010F907D
:1020A0000F900F900F900F90DF91CF911F910F9194
:1020B000FF90EF90DF90CF90BF90AF907F906F90A8
:1020C0005F904F90089564EB71E0C5010E94BB0FD3
:1020D0008C01E4CF64EB71E0C5010E94BB0F8C0161
:1020E000DDCF6DE2C5010E9485043C01F7FAF09452
:1020F000F7F8F094B5CF9B01AC01C701B6010E947F
:10210000CE226B017C010E94AC2369837A838B838E
:102110009C830E9411219B01AC01C701B6010E9462
:10212000CD226B017C012AE030E049815A816B812C
:102130007C81C5010E94A50F8301080F191F8D81A5
:1021400081112BC02D81215029838D81882309F491
:10215000A5CF20E030E040E251E4C701B6010E9483
:1021600072212B013C010E94AC236B014AE050E03C
:10217000C5010E94B40F080F191FB60190E080E05E
:102180000E9411219B01AC01C301B2010E94CD222A
:102190006B017C0129812D83D5CF6EE2C5010E94A0
:1021A0008504080F191FCECF0E94D10F0895FF920A
:1021B0000F931F93CF93DF93EC018B01F42E80914B
:1021C000AC029091AD02A091AE02B091AF024091ED
:1021D0009A0250919B0260919C0270919D02841B17
:1021E000950BA60BB70B883E9340A105B10558F49B
:1021F000B801CE010E94FF0DCE01DF91CF911F915A
:102200000F91FF9008950E943E0460939A0270938C
:102210009B0280939C0290939D028CE393E00E942A
:10222000F50640E065E08CE393E00E94BA0668EBB7
:1022300071E08CE393E00E94BB0F41E06F2D8CE3D3
:1022400093E00E94BA06B8018CE393E00E948D04EB
:10225000CFCF41E06CE572E08EE293E00E94450B47
:102260008111ABC01092170140E062E08CE393E073
:102270000E94BA066FEB71E08CE393E00E94BB0F03
:1022800041E062E08CE393E00E94BA066BEC71E0FF
:102290008CE393E00E94BB0F64EF71E080E090E07C
:1022A0000E944C048CE393E00E94F50641E064E553
:1022B00072E08EE293E00E94450B8111A1C0109262
:1022C000160140E062E08CE393E00E94BA0668EDFC
:1022D00071E08CE393E00E94BB0F41E062E08CE38D
:1022E00093E00E94BA066BEC71E08CE393E00E94ED
:1022F000BB0F64EF71E080E090E00E944C048CE33F
:1023000093E00E94F50641E06CE472E08EE293E017
:102310000E94450B811197C01092150140E062E0C8
:102320008CE393E00E94BA0664EE71E08CE393E0E4
:102330000E94BB0F41E062E08CE393E00E94BA068A
:102340006BEC71E08CE393E00E94BB0F64EF71E0F3
:1023500080E090E00E944C048CE393E00E94F5063C
:1023600041E064E472E08EE293E00E94450B882332
:1023700009F48CC040E062E08CE393E00E94BA066E
:1023800060EF71E08CE393E00E94BB0F41E062E0FC
:102390008CE393E00E94BA066EEC71E08CE393E06C
:1023A0000E94BB0F64EF71E080E090E00E944C045B
:1023B0008CE393E00E94F506089540E062E08CE330
:1023C00093E00E94BA066FEB71E08CE393E00E9409
:1023D000BB0F41E062E08CE393E00E94BA066EEC32
:1023E00071E08CE393E00E94BB0F64EF71E080E04A
:1023F00090E00E944C048CE393E00E94F50656CFD7
:1024000040E062E08CE393E00E94BA0668ED71E080
:102410008CE393E00E94BB0F41E062E08CE393E029
:102420000E94BA066EEC71E08CE393E00E94BB0F51
:1024300064EF71E080E090E00E944C048CE393E054
:102440000E94F50660CF40E062E08CE393E00E94DA
:10245000BA0664EE71E08CE393E00E94BB0F41E0AA
:1024600062E08CE393E00E94BA066EEC71E08CE3CC
:1024700093E00E94BB0F64EF71E080E090E00E9467
:102480004C048CE393E00E94F5066ACF109214018D
:1024900040E062E08CE393E00E94BA0660EF71E0F6
:1024A0008CE393E00E94BB0F41E062E08CE393E099
:1024B0000E94BA066BEC71E08CE393E00E94BB0FC4
:1024C00064EF71E080E090E00E944C048CE393E0C4
:1024D0000E94F506089526E040E855E260E070E0CD
:1024E00088E493E00E9449058CE393E00E9468072A
:1024F0008CE393E00E94A9068CE393E00E94F5062A
:1025000040E062E08CE393E00E94BA066CEF71E079
:102510008CE393E00E94BB0F41E064E08CE393E026
:102520000E94BA0668E072E08CE393E00E94BB0F61
:1025300060ED77E080E090E00E944C048CE393E053
:102540000E94F5060E94291162E087E00E94830242
:1025500062E084E00E94830262E086E00E948302DF
:1025600062E085E00E948302EEE9F2E081E0808390
:1025700081838283838361E082E00E94830261E041
:1025800088E00E94830261E089E00E94830261E0AA
:102590008AE00E94830261E08BE00E94830261E096
:1025A00083E00E94830261E08EE00E9483020E9429
:1025B0003E046093A2027093A3028093A4029093BE
:1025C000A5020E943E0460939A0270939B0280933E
:1025D0009C0290939D02089589E093E00E94140A62
:1025E00020E049E06CE572E089E093E00E94100C85
:1025F00020E049E064E572E089E093E00E94100C7D
:1026000020E049E06CE472E089E093E00E94100C65
:1026100020E049E064E472E089E093E00E94100C5D
:102620006CE572E089E093E00E940B0B609370020E
:1026300070937102809372029093730264E572E06A
:1026400089E093E00E940B0B60936C0270936D0223
:1026500080936E0290936F026CE472E089E093E0E5
:102660000E940B0B609368027093690280936A0268
:1026700090936B0264E472E089E093E00E940B0B9C
:102680006093640270936502809366029093670280
:1026900040E060E08CE393E00E94BA0660E172E003
:1026A0008CE393E00E94BB0F40E063E08CE393E097
:1026B0000E94BA0680911701882309F496C04091C0
:1026C000700250917102609172027091730221E068
:1026D00030E08CE393E00E94D41040E067E08CE3AC
:1026E00093E00E94BA066FED8CE393E00E948504AC
:1026F00041E060E08CE393E00E94BA0669E172E099
:102700008CE393E00E94BB0F41E063E08CE393E035
:102710000E94BA0680911601882309F46DC0409189
:102720006C0250916D0260916E0270916F0221E017
:1027300030E08CE393E00E94D41041E067E08CE34A
:1027400093E00E94BA066FED8CE393E00E9485044B
:1027500040E068E08CE393E00E94BA066DE172E02D
:102760008CE393E00E94BB0F40E06BE08CE393E0CE
:102770000E94BA0680911501882309F444C0409153
:1027800068025091690260916A0270916B0221E0C7
:1027900030E08CE393E00E94D41040E06FE08CE3E3
:1027A00093E00E94BA066FED8CE393E00E948504EB
:1027B00041E068E08CE393E00E94BA0661E272E0D7
:1027C0008CE393E00E94BB0F41E06BE08CE393E06D
:1027D0000E94BA068091140181111CC064E172E06C
:1027E0008CE393E00E94BB0F089564E172E08CE3F8
:1027F00093E00E94BB0F7CCF64E172E08CE393E036
:102800000E94BB0FA5CF64E172E08CE393E00E94CD
:10281000BB0FCECF40916402509165026091660279
:102820007091670221E030E08CE393E00E94D410C5
:1028300041E06FE08CE393E00E94BA066FED8CE319
:1028400093E00E9485040895AF92BF92CF92DF92E9
:10285000EF92FF920F931F93CF93DF938091150117
:10286000882309F4F4C040E067E08CE393E00E9421
:10287000BA0666E272E08CE393E00E94BB0F40E090
:102880006BE08CE393E00E94BA066894EE24E3F8D0
:10289000F12CC4E0D0E00CE712E0209779F0680159
:1028A0008FEFC81AD80AC7010E943022F80180832E
:1028B0002197FFEFEF1AFF0A8601EFCF40917C02CC
:1028C00050917D0260917E0270917F0221E030E0A4
:1028D0008CE393E00E94D41040E06FE08CE393E03F
:1028E0000E94BA066FED8CE393E00E94850441E0FC
:1028F00060E08CE393E00E94BA0640910801509199
:10290000090160910A0170910B0121E030E08CE334
:1029100093E00E94D41041E064E08CE393E00E94D5
:10292000BA066FED8CE393E00E94850441E067E016
:102930008CE393E00E94BA066BE272E08CE393E0D2
:102940000E94BB0F82E00E943C0D882379F1C09069
:102950000801D0900901E0900A01F0900B0120E0FD
:1029600030E048EC51E4C701B6010E940C218823F5
:10297000ECF42DEC3CEC4CEC5DE3C701B6010E949D
:10298000CE22609308017093090180930A0190930D
:102990000B0183E00E943C0D882309F464C0C8E069
:1029A000D0E004E010E0E8E0F1E02DC081E00E941A
:1029B0003C0D882371F3C0900801D0900901E0908C
:1029C0000A01F0900B012DEC3CEC4CEC5DE3C701EF
:1029D000B6010E94DB238823E4F22DEC3CEC4CECA6
:1029E0005DE3C701B6010E94CD2260930801709398
:1029F000090180930A0190930B01CBCF015011097B
:102A0000E5012196F6010115110581F05E016F01C6
:102A10008FEFC81AD80AF080CE010E943022F81633
:102A200069F36F2DCE010E943822E8CF8091080112
:102A300090910901A0910A01B0910B0180937C0251
:102A400090937D02A0937E02B0937F020CC041E080
:102A500062E08CE393E00E94BA066BEC71E08CE3D9
:102A600093E00E94BB0FDF91CF911F910F91FF90D8
:102A7000EF90DF90CF90BF90AF900895AF92BF924C
:102A8000CF92DF92EF92FF920F931F93CF93DF933A
:102A900040E067E08CE393E00E94BA0666E272E0F1
:102AA0008CE393E00E94BB0F40E06BE08CE393E08B
:102AB0000E94BA060F2EF4E1EF2EF12CF02DC4E0A7
:102AC000D0E004E912E0209779F068018FEFC81A8E
:102AD000D80AC7010E943022F80180832197FFEFB6
:102AE000EF1AFF0A8601EFCF4091940250919502B0
:102AF000609196027091970221E030E08CE393E0C0
:102B00000E94D41040E06EE08CE393E00E94BA068D
:102B10006FED8CE393E00E94850441E060E08CE37C
:102B200093E00E94BA064091900250919102609108
:102B300092027091930221E030E08CE393E00E94D6
:102B4000D41041E064E08CE393E00E94BA066FED9C
:102B50008CE393E00E94850441E067E08CE393E01E
:102B60000E94BA066BE272E08CE393E00E94BB0F16
:102B700060919002709191028091920290919302E3
:102B800020E030E040EA50E40E940C21882324F148
:102B900060919002709191028091920290919302C3
:102BA00020E030E0A9010E94DB2318162CF481E01C
:102BB0000E943C0D81112CC083E00E943C0D8111CC
:102BC0003EC0DF91CF911F910F91FF90EF90DF906A
:102BD000CF90BF90AF90089582E00E943C0D882373
:102BE000B9F220E030E040E05FE360919002709144
:102BF000910280919202909193020E94CE22609362
:102C00009002709391028093920290939302D9CF95
:102C100020E030E040E05FE360919002709191022B
:102C200080919202909193020E94CD226093900233
:102C3000709391028093920290939302C2CFC4E169
:102C4000D0E004E010E0E0E9F2E005C00150110935
:102C5000E5012196F6010115110581F05E016F0174
:102C60008FEFC81AD80AF080CE010E943022F816E1
:102C700069F36F2DCE010E943822E8CF8091900237
:102C800090919102A0919202B0919302809394024C
:102C900090939502A0939602B093970292CFAF9231
:102CA000BF92CF92DF92EF92FF920F931F93CF9339
:102CB000DF9340E067E08CE393E00E94BA0666E2AF
:102CC00072E08CE393E00E94BB0F40E06BE08CE38A
:102CD00093E00E94BA066894EE24E4F8F12CC4E074
:102CE000D0E00CE812E0209779F068018FEFC81A65
:102CF000D80AC7010E943022F80180832197FFEF94
:102D0000EF1AFF0A8601EFCF40918C0250918D029D
:102D100060918E0270918F0221E030E08CE393E0AD
:102D20000E94D41040E06EE08CE393E00E94BA066B
:102D30006FED8CE393E00E94850441E060E08CE35A
:102D400093E00E94BA0640918802509189026091F6
:102D50008A0270918B0221E030E08CE393E00E94C4
:102D6000D41041E064E08CE393E00E94BA066FED7A
:102D70008CE393E00E94850441E067E08CE393E0FC
:102D80000E94BA066BE272E08CE393E00E94BB0FF4
:102D9000609188027091890280918A0290918B02E1
:102DA00020E030E040EA50E40E940C21882324F126
:102DB000609188027091890280918A0290918B02C1
:102DC00020E030E0A9010E94DB2318162CF481E0FA
:102DD0000E943C0D81112CC083E00E943C0D8111AA
:102DE0003EC0DF91CF911F910F91FF90EF90DF9048
:102DF000CF90BF90AF90089582E00E943C0D882351
:102E0000B9F220E030E040E05FE360918802709129
:102E1000890280918A0290918B020E94CE22609357
:102E200088027093890280938A0290938B02D9CF93
:102E300020E030E040E05FE3609188027091890219
:102E400080918A0290918B020E94CD226093880229
:102E50007093890280938A0290938B02C2CFC0E163
:102E6000D0E004E010E0E8E8F2E005C0015011090C
:102E7000E5012196F6010115110581F05E016F0152
:102E80008FEFC81AD80AF080CE010E943022F816BF
:102E900069F36F2DCE010E943822E8CF809188021D
:102EA00090918902A0918A02B0918B0280938C024A
:102EB00090938D02A0938E02B0938F0292CFAF9227
:102EC000BF92CF92DF92EF92FF920F931F93CF9317
:102ED000DF9340E067E08CE393E00E94BA0666E28D
:102EE00072E08CE393E00E94BB0F40E06BE08CE368
:102EF00093E00E94BA060F2EF8E1EF2EF12CF02D90
:102F0000C4E0D0E004E712E0209779F068018FEF89
:102F1000C81AD80AC7010E943022F801808321977D
:102F2000FFEFEF1AFF0A8601EFCF40917402509134
:102F30007502609176027091770221E030E08CE3B7
:102F400093E00E94D41040E06FE08CE393E00E9495
:102F5000BA066FED8CE393E00E94850441E060E0E7
:102F60008CE393E00E94BA06409110015091110148
:102F7000609112017091130122E030E08CE393E044
:102F80000E94D41041E064E08CE393E00E94BA0612
:102F90006FED8CE393E00E94850441E067E08CE3F1
:102FA00093E00E94BA066BE272E08CE393E00E9429
:102FB000BB0F82E00E943C0D882391F1C09010016C
:102FC000D0901101E0901201F090130120E030E068
:102FD00040E251E4C701B6010E940C21882304F5A8
:102FE0002DEC3CEC4CEC5DE3C701B6010E94CE2217
:102FF000609310017093110180931201909313015B
:1030000083E00E943C0D811133C0DF91CF911F916D
:103010000F91FF90EF90DF90CF90BF90AF90089509
:1030200081E00E943C0D882359F3C0901001D0909C
:103030001101E0901201F09013012DEC3CEC4CE9F1
:1030400050ECC701B6010E94DB238823CCF22DECA3
:103050003CEC4CEC5DE3C701B6010E94CD226093CD
:103060001001709311018093120190931301C8CF46
:10307000C8E1D0E004E010E0E0E1F1E005C001507B
:103080001109E5012196F6010115110581F05E0196
:103090006F018FEFC81AD80AF080CE010E9430224B
:1030A000F81669F36F2DCE010E943822E8CF809187
:1030B000100190911101A0911201B0911301809320
:1030C000740290937502A0937602B09377029DCF1D
:1030D000CF93DF93CDB7DEB7EC970FB6F894DEBF92
:1030E0000FBECDBF80919902813009F44AC078F0BB
:1030F000823009F46AC0833009F497C0EC960FB6A9
:10310000F894DEBF0FBECDBFDF91CF91089566EE7C
:1031100072E0CE01C1960E949D0E43E0BE016F5C3D
:103120007F4FCE01C7960E94D710CE01C7960E944E
:10313000A90DCE01C1960E94A90D80E00E943C0D10
:103140008823E1F2809199028F5F8093990281E058
:103150008093A70268EC72E0CE0185960E949D0ED6
:1031600040E0BE016B5D7F4FCE018B960E94090E41
:10317000CE018B960E94A90DCE0185960E94A90DC5
:10318000BDCF0E945F1780E00E943C0D882309F4A8
:10319000B5CF64ED72E0CE0149960E949D0E40E0ED
:1031A000BE01675E7F4FCE014F960E94090ECE0191
:1031B0004F960E94A90DCE0149960E94A90D8091BB
:1031C00099028F5F8093990299CF0E943E1580E00B
:1031D0000E943C0D882309F491CF809199028F5F62
:1031E000809399026AED72E0CE010D960E949D0EC9
:1031F00046E0BE01635F7F4FCE0143960E94090EF9
:10320000CE0143960E94A90DCE010D960E94A90DF4
:1032100041E061E08CE393E00E94BA0665E372E06E
:103220008CE393E00E94BB0F69CF80E00E943C0DCD
:10323000811111C083E00E943C0D882309F45ECF08
:10324000109299021092A6021092A7028CE393E0CA
:103250000E94F50653CF81E08093990268EC72E0FA
:10326000CE0101960E949D0E40E0BE016F5F7F4F30
:10327000CE0107960E94090ECE0107960E94A90D65
:10328000CE0101960E94A90D39CFAF92BF92CF9285
:10329000DF92EF92FF920F931F93CF93DF93809172
:1032A0001401882309F4F5C040E067E08CE393E063
:1032B0000E94BA0666E272E08CE393E00E94BB0FC4
:1032C00040E06BE08CE393E00E94BA060F2EFCE036
:1032D000EF2EF12CF02DC4E0D0E008E712E02097AB
:1032E00079F068018FEFC81AD80AC7010E9430220E
:1032F000F80180832197FFEFEF1AFF0A8601EFCFD5
:10330000409178025091790260917A0270917B022B
:1033100021E030E08CE393E00E94D41040E06FE0C5
:103320008CE393E00E94BA066FED8CE393E00E9479
:10333000850441E060E08CE393E00E94BA0640918E
:103340000C0150910D0160910E0170910F0121E06F
:1033500030E08CE393E00E94D41041E064E08CE321
:1033600093E00E94BA066FED8CE393E00E9485041F
:1033700041E067E08CE393E00E94BA066BE272E002
:103380008CE393E00E94BB0F82E00E943C0D8823F7
:1033900079F1C0900C01D0900D01E0900E01F090F9
:1033A0000F0120E030E048EC51E4C701B6010E9473
:1033B0000C218823ECF42DEC3CEC4CEC5DE3C701D4
:1033C000B6010E94CE2260930C0170930D01809390
:1033D0000E0190930F0183E00E943C0D882309F4B5
:1033E00064C0CCE0D0E004E010E0ECE0F1E02DC0FF
:1033F00081E00E943C0D882371F3C0900C01D090B5
:103400000D01E0900E01F0900F012DEC3CEC4CEC26
:103410005DE3C701B6010E94DB238823E4F22DECB3
:103420003CEC4CEC5DE3C701B6010E94CD226093F9
:103430000C0170930D0180930E0190930F01CBCF7F
:1034400001501109E5012196F6010115110581F0E0
:103450005E016F018FEFC81AD80AF080CE010E947A
:103460003022F81669F36F2DCE010E943822E8CF82
:1034700080910C0190910D01A0910E01B0910F016E
:103480008093780290937902A0937A02B0937B02A2
:103490000CC041E062E08CE393E00E94BA066BEC62
:1034A00071E08CE393E00E94BB0FDF91CF911F91FD
:1034B0000F91FF90EF90DF90CF90BF90AF90089565
:1034C000AF92BF92CF92DF92EF92FF920F931F9332
:1034D000CF93DF9380911601882309F4F4C040E074
:1034E00067E08CE393E00E94BA0666E272E08CE348
:1034F00093E00E94BB0F40E06BE08CE393E00E94FE
:10350000BA066894EE24E2F8F12CC4E0D0E000E8BA
:1035100012E0209779F068018FEFC81AD80AC70126
:103520000E943022F80180832197FFEFEF1AFF0AF3
:103530008601EFCF4091800250918102609182021A
:103540007091830221E030E08CE393E00E94D4107C
:1035500040E06FE08CE393E00E94BA066FED8CE3ED
:1035600093E00E94850441E060E08CE393E00E94D8
:10357000BA064091040150910501609106017091D5
:10358000070121E030E08CE393E00E94D41041E099
:1035900064E08CE393E00E94BA066FED8CE393E065
:1035A0000E94850441E067E08CE393E00E94BA0644
:1035B0006BE272E08CE393E00E94BB0F82E00E941A
:1035C0003C0D882379F1C0900401D0900501E09072
:1035D0000601F090070120E030E048EC51E4C7011B
:1035E000B6010E940C218823ECF42DEC3CEC4CEC51
:1035F0005DE3C701B6010E94CE226093040170937F
:103600000501809306019093070183E00E943C0D21
:10361000882309F464C0C4E0D0E004E010E0E4E0F2
:10362000F1E02DC081E00E943C0D882371F3C09031
:103630000401D0900501E0900601F09007012DEC07
:103640003CEC4CEC5DE3C701B6010E94DB23882310
:10365000E4F22DEC3CEC4CEC5DE3C701B6010E94BA
:10366000CD2260930401709305018093060190932D
:103670000701CBCF01501109E5012196F601011593
:10368000110581F05E016F018FEFC81AD80AF08032
:10369000CE010E943022F81669F36F2DCE010E94F0
:1036A0003822E8CF8091040190910501A091060194
:1036B000B09107018093800290938102A0938202CF
:1036C000B09383020CC041E062E08CE393E00E947F
:1036D000BA066BEC71E08CE393E00E94BB0FDF91C4
:1036E000CF911F910F91FF90EF90DF90CF90BF90FF
:1036F000AF900895AF92BF92CF92DF92EF92FF9278
:103700000F931F93CF93DF9380911701882309F4C0
:10371000F2C040E067E08CE393E00E94BA0666E204
:1037200072E08CE393E00E94BB0F40E06BE08CE31F
:1037300093E00E94BA06F12CE12CC4E0D0E004E84A
:1037400012E0209779F068018FEFC81AD80AC701F4
:103750000E943022F80180832197FFEFEF1AFF0AC1
:103760008601EFCF409184025091850260918602DC
:103770007091870221E030E08CE393E00E94D41046
:1037800040E06FE08CE393E00E94BA066FED8CE3BB
:1037900093E00E94850441E060E08CE393E00E94A6
:1037A000BA064091000150910101609102017091AF
:1037B000030121E030E08CE393E00E94D41041E06B
:1037C00064E08CE393E00E94BA066FED8CE393E033
:1037D0000E94850441E067E08CE393E00E94BA0612
:1037E0006BE272E08CE393E00E94BB0F82E00E94E8
:1037F0003C0D882379F1C0900001D0900101E09048
:103800000201F090030120E030E048EC51E4C701F0
:10381000B6010E940C218823ECF42DEC3CEC4CEC1E
:103820005DE3C701B6010E94CE2260930001709350
:103830000101809302019093030183E00E943C0DFB
:10384000882309F464C0D0E0C0E004E010E0E0E0C8
:10385000F1E02DC081E00E943C0D882371F3C090FF
:103860000001D0900101E0900201F09003012DECE5
:103870003CEC4CEC5DE3C701B6010E94DB238823DE
:10388000E4F22DEC3CEC4CEC5DE3C701B6010E9488
:10389000CD22609300017093010180930201909307
:1038A0000301CBCF01501109E5012196F601011565
:1038B000110581F05E016F018FEFC81AD80AF08000
:1038C000CE010E943022F81669F36F2DCE010E94BE
:1038D0003822E8CF8091000190910101A09102016E
:1038E000B09103018093840290938502A093860295
:1038F000B09387020CC041E062E08CE393E00E9449
:10390000BA066BEC71E08CE393E00E94BB0FDF9191
:10391000CF911F910F91FF90EF90DF90CF90BF90CC
:10392000AF900895CF93DF93CDB7DEB7C056D109DE
:103930000FB6F894DEBF0FBECDBFE0919802E7301E
:1039400058F5F0E0EA55F34E0C94B322AD1CF91C87
:103950001E1D421D661D8A1DBA1D60EE72E0CE015D
:103960008B5A9F4F0E949D0E44E0BE016B5A7F4FC1
:10397000CE01855A9F4F0E94D710CE01855A9F4F86
:103980000E94A90DCE018B5A9F4F0E94A90D80E085
:103990000E943C0D81110AC0C05ADF4F0FB6F89447
:1039A000DEBF0FBECDBFDF91CF9108958091980209
:1039B0008F5F8093980281E08093A70260EB72E0B2
:1039C000CE01875B9F4F0E949D0E40E0BE01675B6A
:1039D0007F4FCE01815B9F4F0E94090ECE01815B1C
:1039E0009F4F0E94A90DCE01875B9F4F0E94A90D9A
:1039F000D3CF0E947A1B80E00E943C0D882361F2A5
:103A0000809198028F5F8093980266EB72E0CE01FE
:103A1000CD960E949D0E40E0BE01635C7F4FCE01BB
:103A20008D5B9F4F0E94090ECE018D5B9F4F0E94C0
:103A3000A90DCE01CD960E94A90DAECF0E94601AAD
:103A400080E00E943C0D882309F4A6CF8091980263
:103A50008F5F809398026CEB72E0CE01C1960E945A
:103A60009D0E40E0BE016F5C7F4FCE01C7960E9465
:103A7000090ECE01C7960E94A90DCE01C1960E94E3
:103A8000A90D8ACF0E94241480E00E943C0D882357
:103A900009F482CF809198028F5F8093980262EC44
:103AA00072E0CE0185960E949D0E40E0BE016B5DE6
:103AB0007F4FCE018B960E94090ECE018B960E94FD
:103AC000A90DCE0185960E94A90D66CF0E944519C9
:103AD00080E00E943C0D882309F45ECF809198021B
:103AE0008F5F8093980264ED72E0CE0149960E9448
:103AF0009D0E40E0BE01675E7F4FCE014F960E9453
:103B0000090ECE014F960E94A90DCE0149960E9442
:103B1000A90D42CF0E944F1680E00E943C0D8823E1
:103B200009F43ACF809198028F5F809398026AEDF2
:103B300072E0CE010D960E949D0E46E0BE01635FCD
:103B40007F4FCE0143960E94090ECE0143960E94FC
:103B5000A90DCE010D960E94A90D41E061E08CE314
:103B600093E00E94BA0665E372E08CE393E00E9462
:103B7000BB0F12CF80E00E943C0D811111C083E089
:103B80000E943C0D882309F407CF109298021092EE
:103B9000A6021092A7028CE393E00E94F506FCCEE9
:103BA00081E08093980260EB72E0CE0101960E9462
:103BB0009D0E40E0BE016F5F7F4FCE0107960E94D1
:103BC000090ECE0107960E94A90DCE0101960E9412
:103BD000A90DE2CE0E943E046093AC027093AD0248
:103BE0008093AE029093AF020E943E046093A802BD
:103BF0007093A9028093AA029093AB0283E00E9483
:103C00003C0D882349F08091A702811105C0809165
:103C1000A6028F5F8093A60283E00E943C0D8091F4
:103C2000A602882341F0813011F1823019F128F089
:103C30001092A60202C00E94EC128091A8029091FC
:103C4000A902A091AA02B091AB024091A2025091A8
:103C5000A3026091A4027091A502841B950BA60B90
:103C6000B70B8A3F9105A105B10548F408950E945C
:103C7000921CE3CF8093A6020E946818DECF0E94B8
:103C80003E046093A2027093A3028093A4029093D7
:103C9000A502ECCF6FEF7FEF81E090E00E948A01F8
:103CA0006FEF7FEF81E090E00E94CC046FEF7FEF39
:103CB00081E090E00E94BC0E08951F920F920FB613
:103CC0000F9211242F933F934F935F936F937F93A2
:103CD0008F939F93AF93BF93EF93FF93E091B900BE
:103CE000E87FE93C08F0D5C0F0E0E758F14E0C94CD
:103CF000B3223E20491F491F491F491F491F491F21
:103D0000491F421F491F491F491F491F491F491F7A
:103D1000491F421F491F491F491F491F491F491F6A
:103D2000491F5A1F491F491F491F491F491F491F42
:103D3000491F801F491F491F491F491F491F491F0C
:103D4000491F5A1F491F491F491F491F491F491F22
:103D5000491F861F491F491F491F491F491F491FE6
:103D6000491F8C1F491F491F491F491F491F491FD0
:103D7000491F9E1F491F491F491F491F491F491FAE
:103D8000491FC81F491F491F491F491F491F491F74
:103D9000491F921F491F491F491F491F491F491F9A
:103DA000491FAC1F491F491F491F491F491F491F70
:103DB000491FCB1F491F491F491F491F491F491F41
:103DC000491FCB1F491F491F491F491F491F491F31
:103DD000491FCB1F491F491F491F491F491F491F21
:103DE000491FCB1F491F491F491F491F491F491F11
:103DF000491FD41F491F491F491F491F491F491FF8
:103E0000491F0520491F491F491F491F491F491FB5
:103E1000491FD41F491F491F491F491F491F491FD7
:103E2000491F0520491F491F491F491F491F491F95
:103E3000491FEC1F491F491F491F491F491F491F9F
:103E4000491F0920491F491F491F491F491F491F71
:103E5000491F0920491F491F491F491F491F491F61
:103E6000491F1E20491F491F491F491F491F491F3C
:103E7000491F3820491F491F491F491F491F491F12
:103E8000491F38208091B3048093BB0081E00E94D9
:103E9000A300FF91EF91BF91AF919F918F917F917F
:103EA0006F915F914F913F912F910F900FBE0F90A7
:103EB0001F9018959091B2048091B104981768F002
:103EC00080919004811119C081E080938F0484EA6D
:103ED0008093BC0010928E04DCCFE091B20481E0AC
:103EE0008E0F8093B204F0E0EF56FB4F80818093F9
:103EF000BB0081E00E94A300CCCF0E945A0DC9CF25
:103F000080E280938D040E945A0DC3CF80E380939A
:103F10008D040E945A0DBDCF88E380938D040E94CA
:103F20009D00B7CFE091B20481E08E0F8093B20480
:103F3000F0E08091BB00EF56FB4F80839091B2047C
:103F40008091B104981720F481E00E94A300A1CFD2
:103F500080E00E94A3009DCFE091B20481E08E0F2B
:103F60008093B204F0E08091BB00EF56FB4F80835A
:103F700080919004811109C081E080938F0484EACC
:103F80008093BC0010928E0484CF0E945A0D81CF82
:103F90000E945A0D7ECF83E080938E0410928C0491
:103FA00081E00E94A30075CF80918C04803280F460
:103FB000E0918C0481E08E0F80938C04F0E080917E
:103FC000BB00E459FB4F808381E00E94A30061CFD6
:103FD00080E00E94A3005DCF0E949D0080918C0430
:103FE000803230F4E0918C04F0E0E459FB4F108211
:103FF00060918C0470E0E0916A04F0916B048CE6AF
:1040000094E0099510928C0444CF80E00E94A300B4
:1040100040CF84E080938E0410926904109268046B
:10402000E0916604F091670409958091680481111C
:1040300005C081E08093680410924604E091690411
:1040400081E08E0F80936904F0E0EA5BFB4F808192
:104050008093BB009091690480916804981720F4C4
:1040600081E00E94A30015CF80E00E94A30011CF41
:1040700081E00E94A30010928E040BCF10928D0459
:104080000E945A0D06CF1F920F920FB60F92112465
:104090000F931F932F933F934F935F936F937F9350
:1040A0008F939F93AF93BF930091E6031091E70323
:1040B0002091E8033091E9039091E503B901A8014B
:1040C0004F5F5F4F6F4F7F4F83E0890F8D3740F019
:1040D00086E8890FB901A8014E5F5F4F6F4F7F4F90
:1040E0008093E5034093E6035093E7036093E8036E
:1040F0007093E9038091EA039091EB03A091EC03A4
:10410000B091ED030196A11DB11D8093EA03909338
:10411000EB03A093EC03B093ED03BF91AF919F919C
:104120008F917F916F915F914F913F912F911F914F
:104130000F910F900FBE0F901F9018950E94C20212
:104140000E946B120E94EA1D0E943A06FBCF1F924A
:104150000F920FB60F9211242F933F934F935F93BB
:104160006F937F938F939F93AF93BF93EF93FF933F
:1041700088E493E00E94AB05FF91EF91BF91AF916E
:104180009F918F917F916F915F914F913F912F916F
:104190000F900FBE0F901F9018951F920F920FB6A1
:1041A0000F9211242F938F939F93AF93BF93EF930D
:1041B000FF93E0915803F0915903808182FD14C070
:1041C000E8E4F3E0A689B7892C91818D8F5F8F7326
:1041D000928D891771F0DF01E18DF0E0E85BFC4F13
:1041E000258F59968C9305C0E0915E03F0915F0393
:1041F0008081FF91EF91BF91AF919F918F912F910E
:104200000F900FBE0F901F9018956FEF7FEF90E00B
:1042100080E00E94BC0E08950E944E2108F481E0C7
:104220000895E89409C097FB3EF4909580957095A9
:1042300061957F4F8F4F9F4F9923A9F0F92F96E9F2
:10424000BB279395F695879577956795B795F11167
:10425000F8CFFAF4BB0F11F460FF1BC06F5F7F4F04
:104260008F4F9F4F16C0882311F096E911C0772316
:1042700021F09EE8872F762F05C0662371F096E81F
:10428000862F70E060E02AF09A95660F771F881FEE
:10429000DAF7880F9695879597F90895990F000892
:1042A000550FAA0BE0E8FEEF16161706E807F90708
:1042B000C0F012161306E407F50798F0621B730BA3
:1042C000840B950B39F40A2661F0232B242B252B24
:1042D00021F408950A2609F4A140A6958FEF811DC7
:1042E000811D08950E9485210C94F6210E94E821E9
:1042F00038F00E94EF2120F0952311F00C94DF217B
:104300000C94E52111240C942A220E94072270F3B8
:10431000959FC1F3950F50E0551F629FF001729F6A
:10432000BB27F00DB11D639FAA27F00DB11DAA1F79
:10433000649F6627B00DA11D661F829F2227B00DC6
:10434000A11D621F739FB00DA11D621F839FA00D51
:10435000611D221F749F3327A00D611D231F849FA1
:10436000600D211D822F762F6A2F11249F575040F8
:104370009AF0F1F088234AF0EE0FFF1FBB1F661F73
:10438000771F881F91505040A9F79E3F510580F03C
:104390000C94DF210C942A225F3FE4F3983ED4F37F
:1043A000869577956795B795F795E7959F5FC1F7E0
:1043B000FE2B880F911D9695879597F9089597F98B
:1043C0009F6780E870E060E008959FEF80EC0895BB
:1043D00000240A94161617061806090608950024E4
:1043E0000A9412161306140605060895092E03945E
:1043F000000C11F4882352F0BB0F40F4BF2B11F4D2
:1044000060FF04C06F5F7F4F8F4F9F4F089557FD30
:104410009058440F551F59F05F3F71F04795880F32
:1044200097FB991F61F09F3F79F0879508951216C9
:1044300013061406551FF2CF4695F1DF08C0161675
:1044400017061806991FF1CF869571056105089426
:104450000895E894BB2766277727CB0197F908953D
:10446000F999FECF92BD81BDF89A992780B508953C
:10447000262FF999FECF1FBA92BD81BD20BD0FB680
:10448000F894FA9AF99A0FBE019608952F923F92E6
:104490004F925F926F927F928F929F92AF92BF9254
:1044A000CF92DF92EF92FF920F931F93CF93DF9300
:1044B000CDB7DEB7CA1BDB0B0FB6F894DEBF0FBE5D
:1044C000CDBF09942A88398848885F846E847D84AA
:1044D0008C849B84AA84B984C884DF80EE80FD80AC
:1044E0000C811B81AA81B981CE0FD11D0FB6F89422
:1044F000DEBF0FBECDBFED01089597FB072E16F46A
:10450000009407D077FD09D00E94B92207FC05D09E
:104510003EF4909581959F4F0895709561957F4FDA
:104520000895A1E21A2EAA1BBB1BFD010DC0AA1FF4
:10453000BB1FEE1FFF1FA217B307E407F50720F00C
:10454000A21BB30BE40BF50B661F771F881F991F87
:104550001A9469F760957095809590959B01AC01D0
:10456000BD01CF010895EE0FFF1F0590F491E02DDE
:104570000994AA1BBB1B51E107C0AA1FBB1FA617AA
:10458000B70710F0A61BB70B881F991F5A95A9F7FC
:1045900080959095BC01CD0108955058BB27AA275E
:1045A0000E94E5220C94F6210E94E82138F00E9436
:1045B000EF2120F039F49F3F19F426F40C94E52103
:1045C0000EF4E095E7FB0C94DF21E92F0E9407220F
:1045D00058F3BA17620773078407950720F079F438
:1045E000A6F50C9429220EF4E0950B2EBA2FA02DDF
:1045F0000B01B90190010C01CA01A0011124FF2790
:10460000591B99F0593F50F4503E68F11A16F0408A
:10461000A22F232F342F4427585FF3CF4695379589
:104620002795A795F0405395C9F77EF41F16BA0B4E
:10463000620B730B840BBAF09150A1F0FF0FBB1FFC
:10464000661F771F881FC2F70EC0BA0F621F731F45
:10465000841F48F4879577956795B795F7959E3FA2
:1046600008F0B0CF9395880F08F09927EE0F979533
:10467000879508950E944E230C94F6210E94EF2105
:1046800058F00E94E82140F029F45F3F29F00C9493
:10469000DF2151110C942A220C94E5210E9407225B
:1046A00068F39923B1F3552391F3951B550BBB2761
:1046B000AA2762177307840738F09F5F5F4F220FA6
:1046C000331F441FAA1FA9F335D00E2E3AF0E0E89D
:1046D00032D091505040E695001CCAF72BD0FE2FE7
:1046E00029D0660F771F881FBB1F2617370748077B
:1046F000AB07B0E809F0BB0B802DBF01FF27935833
:104700005F4F3AF09E3F510578F00C94DF210C94F6
:104710002A225F3FE4F3983ED4F386957795679518
:10472000B795F7959F5FC9F7880F911D9695879567
:1047300097F90895E1E0660F771F881FBB1F621786
:1047400073078407BA0720F0621B730B840BBA0B44
:10475000EE1F88F7E09508950E940F2288F09F577A
:1047600098F0B92F9927B751B0F0E1F0660F771F95
:10477000881F991F1AF0BA95C9F714C0B13091F08B
:104780000E942922B1E008950C942922672F782FE6
:104790008827B85F39F0B93FCCF386957795679550
:1047A000B395D9F73EF490958095709561957F4FBC
:1047B0008F4F9F4F08950E944E2108F48FEF089568
:1047C0000E944E21880B990B08950F931F93CF934E
:1047D000DF938230910510F482E090E0E091B6041E
:1047E000F091B70430E020E0B0E0A0E0309799F419
:1047F0002115310509F44AC0281B390B2430310535
:10480000D8F58A819B816115710589F1FB0193833C
:104810008283FE0111C040815181028113814817BA
:104820005907E0F04817590799F4109761F012966C
:104830000C93129713961C933296CF01DF91CF9170
:104840001F910F9108950093B6041093B704F4CF0D
:104850002115310551F04217530738F0A901DB014A
:104860009A01BD01DF01F801C1CFEF01F9CF9093AB
:10487000B7048093B604CDCFFE01E20FF31F8193FE
:1048800091932250310939832883D7CF2091B404E2
:104890003091B504232B41F420911A0130911B0172
:1048A0003093B5042093B40420911801309119017C
:1048B0002115310541F42DB73EB740911C015091AF
:1048C0001D01241B350BE091B404F091B504E217EF
:1048D000F307A0F42E1B3F0B2817390778F0AC0123
:1048E0004E5F5F4F2417350748F04E0F5F1F509300
:1048F000B5044093B404819391939FCFF0E0E0E03E
:104900009CCFCF93DF930097E9F0FC01329713829D
:104910001282A091B604B091B704ED0130E020E01E
:104920001097A1F420813181820F931F2091B4044C
:104930003091B5042817390709F061C0F093B50428
:10494000E093B404DF91CF910895EA01CE17DF0719
:10495000E8F54A815B819E0141155105B1F7E901F6
:10496000FB83EA8349915991C40FD51FEC17FD07CA
:1049700061F4808191810296840F951FE9019983EA
:104980008883828193819B838A83F0E0E0E01296A2
:104990008D919C9113970097B9F52D913C911197AA
:1049A000CD010296820F931F2091B4043091B5047B
:1049B0002817390739F6309751F51092B70410923D
:1049C000B604B093B504A093B404BCCFD383C28320
:1049D00040815181840F951FC817D90761F44E5F3C
:1049E0005F4F88819981480F591F518340838A8185
:1049F0009B81938382832115310509F0B0CFF09319
:104A0000B704E093B6049ECFFD01DC01C0CF138252
:104A10001282D7CFB0E0A0E0E0E1F5E20C944822AA
:104A20008C01009751F4CB010E94E5238C01C80151
:104A3000CDB7DEB7E0E10C946422FC01E60FF71F6E
:104A40009C0122503109E217F30708F49DC0D901F7
:104A5000CD91DC911197C617D70798F0C530D105D5
:104A600030F3CE0104978617970708F3C61BD70BC0
:104A70002297C193D1936D937C93CF010E9481249F
:104A8000D6CF5B01AC1ABD0A4C018C0E9D1EA091C5
:104A9000B604B091B704512C412CF12CE12C1097A5
:104AA00031F58091B4049091B5048815990509F009
:104AB0005CC04616570608F058C0809118019091C6
:104AC0001901009741F48DB79EB740911C01509198
:104AD0001D01841B950BE817F90708F055C0F093EA
:104AE000B504E093B404F90171836083A0CF8D9184
:104AF0009C91119712966C90129713967C90139735
:104B0000A815B90559F56C0142E0C40ED11CCA14B0
:104B1000DB0420F1AC014A195B09DA011296159702
:104B200080F06282738251834083D9016D937C93BC
:104B3000E114F10471F0D7011396FC93EE931297F0
:104B400076CF22968C0F9D1FF90191838083F3010C
:104B5000EFCFF093B704E093B60469CF4816590637
:104B600008F42C017D01D3019ACFCB010E94E523EB
:104B70007C01009749F0AE01B8010E94C725C80129
:104B80000E948124870153CF10E000E050CFFB0149
:104B9000DC0102C001900D9241505040D8F70895B9
:104BA000FB01DC0101900D920020E1F7089510E077
:104BB000C2E7D0E004C0FE010E94B3222196C337B1
:084BC000D107C9F7F894FFCFFB
:104BC8000000704100007041000070410000704119
:104BD8000000A040010101010000B80480000000AD
:104BE8004000140054000405060700000000770781
:104BF8009C047E077D0700000000CD059C04FF048F
:104C08001706320510052405000000003F010F01BA
:104C18007E07E4000801F400E5004645524D454E84
:104C28005445520020204348494C4C45522020000E
:104C3800202053595354454D20200054414E4B20B9
:104C4800310054414E4B20320054414E4B2033002A
:104C580054414E4B203400464C5549440048454188
:104C68005400485953540045584954006E616E0029
:104C7800696E66006F766600434F4E4649470046A8
:104C880045524D454E544552203100444953434FF7
:104C98004E4E4543544544004645524D454E5445B5
:104CA800522032004645524D454E5445522033005D
:104CB8004645524D454E54455220340054454D50BA
:104CC8004552415455524500434F4E54524F4C00A3
:104CD80054313A004F4646200054323A0054333A91
:104CE8000054343A20005365743A005052455353E7
:104CF800202B2F2D0050524553532042544E204D07
:044D0800454E5500BF
:00000001FF
